:020000040800F2
:10000000986B0120A10100087B430008F73C000821
:10001000794300080D170008254A00080000000079
:1000200000000000000000000000000097430008EE
:10003000FD1700080000000095430008AD430008CC
:10004000BB010008BB010008BB010008BB010008A0
:10005000BB010008BB010008BB010008BB01000890
:10006000BB010008BB0100081D180008BB01000807
:10007000BB010008BB010008111700081D1700088C
:1000800029170008BB0100086D150008BB01000816
:10009000BB010008BB010008BB010008BB01000850
:1000A000BB010008BB010008BB010008BB01000840
:1000B000BB0100085544000861440008BB0100086A
:1000C000BB010008BB010008BB010008BB01000820
:1000D000BB010008BB010008BB010008BB01000810
:1000E000BB010008BB010008BB010008BB01000800
:1000F000BB010008BB010008BB010008BB010008F0
:10010000BB010008BB010008BB010008BB010008DF
:10011000BB010008BB0100086D440008BB010008DA
:1001200035170008BB010008BB0100084D17000887
:10013000BB010008BB010008BB010008BB010008AF
:10014000BB010008BB010008BB010008BB0100089F
:10015000BB010008BB010008BB010008BB0100088F
:10016000BB010008BB010008BB010008BB0100087F
:10017000BB010008BB010008BB0100080000000033
:10018000BB010008BB010008DFF810D000F098FAAE
:1001900000480047F5860008AFF30080986B012007
:1001A0000648804706480047FEE7FEE7FEE7FEE711
:1001B000FEE7FEE7FEE7FEE7FEE7FEE74544000850
:1001C000890100082DE9F05F0546002092469B4614
:1001D00088460646814640241BE02846414647465D
:1001E000224600F077F953465A46C01A914110D37F
:1001F00011461846224600F05EF92D1A67EB0108F9
:100200004F4622460120002100F055F917EB000966
:100210004E41201EA4F10104DFDC484631462A4647
:100220004346BDE8F09FD2B201E000F8012B491E21
:10023000FBD270470022F6E710B513460A46044683
:100240001946FFF7F0FF204610BD2DE9FE4F81EA69
:10025000030404F0004421F0004100944FF0000B2F
:1002600023F0004350EA01045ED052EA03045BD05D
:10027000C3F30A54C1F30A552C44A4F2F334019495
:10028000A0FB0254C1F3130141F48011C3F3130323
:1002900043F4801301FB024400FB034E840A970AD7
:1002A00044EA815447EA8357A4FB076802958D0A04
:1002B00005FB07854FEA932C04FB0C542705029D90
:1002C0004FEA065847EA1637B5EB08056EEB070C00
:1002D000870E920E47EA811742EA8312A7FB0201BA
:1002E000B6EB0B0164EB00042B0D43EA0C335E18F4
:1002F00044EB1C50DA465146E7FB0201C5F31304F8
:100300004FEA0B3343EA14534FEA0432019C43EAA9
:100310000603A4F10C040294009CCDE900B400F0A3
:100320002FF903B0BDE8F08F00200146F9E72DE971
:10033000F04D81EA030404F0004B21F0004514461F
:100340004FF0000A23F0004150EA050220D054EAA1
:1003500001021DD0C5F30A570246C5F31303C1F3CA
:100360001300C1F30A5640F4801543F48013A7EB41
:100370000608101BD64608F2FD3873EB050002D3C1
:1003800008F1010801E092185B41B8F1000F03DAAF
:1003900000200146BDE8F08D00204FF48011064694
:1003A00084460EE0171B73EB050705D3121B63EBA6
:1003B000050306434CEA010C49084FEA3000921845
:1003C0005B4150EA0107EDD152EA030012D082EA04
:1003D000040083EA0501084305D0101BAB4106D297
:1003E0000122002306E000224FF0004302E06FF0FC
:1003F000010253101AEB06004CEB085110EB0A00F7
:1004000041EB0B01BDE8F04D00F0ABB80EB540F28A
:10041000334102910021CDE900110A460B4600F05C
:10042000AFF803B000BDC1F30A5210B5C1F3130118
:1004300040F2FF3341F480119A4201DA002010BDEE
:1004400040F233439A42A2F2334203DC524200F0BC
:1004500041F810BD904010BD00F0004230F0004067
:100460000AD0C10D01F56071C0F3160042EA0151D6
:10047000C20840071143704700200146704701F051
:10048000004330B421F0004150EA010206D00A0DC9
:10049000A2F56072C1F31301002A02DC30BC002017
:1004A0007047440F44EAC104C100E01830BC00EBBF
:1004B000C25000F01FB8202A04DB203A00FA02F1F3
:1004C000002070479140C2F1200320FA03F3194342
:1004D00090407047202A04DB203A21FA02F00021E4
:1004E000704721FA02F3D040C2F120029140084344
:1004F000194670470029A8BF7047401C490008BF33
:1005000020F00100704710B4B0FA80FC00FA0CF043
:1005100050EA010404BF10BC704749B1CCF120047B
:1005200021FA04F411FA0CF118BF01212143084308
:10053000A3EB0C01CB1D4FEA00614FEA102042BF34
:10054000002010BC704700EBC35010440029A4BF2A
:1005500010BC7047401C490008BF20F0010010BCCF
:10056000704710B5141E73F1000408DA401C41F105
:10057000000192185B411A4301D120F0010010BD27
:100580002DE9F04D92469B4611B1B1FA81F202E09D
:10059000B0FA80F220329046FFF78DFF04460F46F6
:1005A00040EA0A0041EA0B0153465A46084313D079
:1005B000114653EA010019D0C8F140025046FFF736
:1005C00089FF05460E46504659464246FFF773FFDF
:1005D000084305D0012004E020463946BDE8F08DEF
:1005E0000020054346EAE0762C4337430A9863052A
:1005F000E40AA0EB08000022FD0A44EA47540A304E
:1006000002D500200146E9E7010510196941DDE93D
:10061000084500196941BDE8F04DA2E72DE9F04D0C
:1006200000231A461B1A8A4103DB00200146BDE85D
:10063000F08DC1F30A52C1F3130141F480154FF05C
:10064000000BD10702D100186D41521E002704464D
:1006500040F2FF11384601EB620A3E4680460246F0
:1006600000204FF48011FFF735FFC2197141BB180C
:1006700046EB0100B4EB030C75EB000C04D3E41A59
:1006800065EB000517460E46241908F101006D417F
:1006900080463428E3DDF91946EB0600091BA84122
:1006A00003D24FF0FF32134601E0002213461BEB4A
:1006B000070046EB0A51BDE8F04DFFF752BF0000BE
:1006C000064C074D06E0E06840F0010394E807009F
:1006D00098471034AC42F6D3FFF75AFD445801084E
:1006E0006458010830B58C1810F8012B12F00F0374
:1006F00001D110F8013B120906D110F8012B03E0DB
:1007000010F8015B01F8015B5B1EF9D101E001F813
:10071000013B521EFBD1A142E6D3002030BD0000B8
:10072000F0B5F1B1002300BF02EB430C32F813E047
:10073000BCF802C02EF0030E2CF0030C50F80E5043
:1007400050F80C6000EB0E0400EB0C0740F80E6054
:1007500040F80C507E68656802338B4266607D60AD
:10076000E2D3F0BD2DE9F0410488984616460746CD
:10077000012A0D460CD1E4B3281D214690ED000A54
:100780000139B1EE400A80ED000A00F10800F5D110
:10079000FF2C0CDDB4F5806F10DBB4F5805F22D048
:1007A000B4F5006F11D0B4F5806F17D021E03F2C65
:1007B00010DC102C12D0202C07D01AE0B4F5807F6A
:1007C00003D0B4F5007F0ED013E03846294600F080
:1007D00005F90EE0402C06D0802C0AD13846294677
:1007E00000F030F805E07A6828462146012300F041
:1007F0009DFBB8F1000F04D0B989BA682846FFF70D
:100800008FFF012E1CD100EE104A002CB8EE400ADA
:1008100008BFBDE8F081B7EE001A81EE000A00BF04
:1008200095ED001A95ED012A20EE011A22EE402ADC
:1008300085ED001A85ED012A013C05F10805EFD18F
:10084000BDE8F0812DE9F0472DED028B038880464D
:10085000084601EB830AD8F804200021B1EBD30F3E
:100860004FEA530900F0AB80D9080AEB890C00EB82
:10087000890E0027C4190AEB070594ED000A95EDCF
:10088000003A94ED011A95ED014A0EEB07030CEBCB
:10089000070694ED022A95ED025A70EE035A93ED85
:1008A000006AD6ED001AD6ED012AD6ED023AD6ED51
:1008B000034AC4ED005A71EE045A93ED017AC4ED77
:1008C000015A72EE055AD3ED020AC4ED025AD4ED74
:1008D000035AD5ED036A31EE441A35EEA68A36EE98
:1008E000214AD3ED037A84ED038A83ED004A37EE83
:1008F000224A83ED014A30EEA34A83ED024A37EEE5
:10090000A44A83ED034AD31931EEC64A33EEE06AB6
:10091000D3ED000AD3ED011A30EE430A32EE452A38
:1009200032EEC75A60EE202A61EE213A21EE201AFB
:1009300020EE210A31EE400A85ED010A24EE210A5B
:1009400025EE211A25EE205A72EEA32A24EE204A23
:1009500030EE450AC5ED002A86ED000A34EE010AA4
:1009600086ED010A93ED020A93ED031A35EEE63A9D
:1009700022EE004A23EE015A23EE003A22EE012A2B
:1009800034EEE77A33EE422A85ED032A26EE012A79
:1009900027EE011A27EE003A26EE000A34EE054A49
:1009A00032EE432A30EE010A013907F1100785EDD6
:1009B000024A86ED022A86ED030A7FF45BAF4946C0
:1009C000022300F0B3FAD8F8042050464946022327
:1009D000BDEC028BBDE8F04700F0A8BA2DE9F04F5E
:1009E00081B02DED088B8EB002880346500801EBD4
:1009F000800505EB800691ED000A91ED011A96ED58
:100A0000002A96ED013A04935B6806EB800730EE0E
:100A1000024A30EE420A31EE032A31EE431A95EDD6
:100A2000013A95ED005A0593930897ED017AD7EDB9
:100A3000000A029374EE452A72EE433A34EE054AF8
:100A400032EE032A6FF0010334EE204A32EE072A19
:100A500003EB920230EE036A71EE451A30EE430A60
:100A600031EE051A81ED004A0A9181ED012A510803
:100A700036EE476A71EEA01A72EEE02A73EEC73ABC
:100A800030EE070A31EE601A0095019603970D913A
:100A9000C10085ED006AC5ED011AC6ED002AC6ED5C
:100AA000013A87ED000A87ED011A0C9100EB400135
:100AB0006FF007036FF003074FEA800E07EBC00BE0
:100AC00007EB800A03EB001903EB81028C00002086
:100AD000002500210B9100BF0A9E059B07900695FB
:100AE000089406EB04080C9C311806EB040C06EB8A
:100AF0000E0491ED020A9CED022AD4ED020A30EEBA
:100B0000026AD8ED022A36EE204A34EE224A91EDEE
:100B1000031A9CED033AD4ED031AD8ED033A81EDA4
:100B2000024A94ED034A31EE037A98ED035A37EE08
:100B3000044ACDF824E034EE054A81ED034A0B99CE
:100B400030EE420A31EE431A30EE212A03EB010E59
:100B500032EE634A31EE602A0D9932EE225A36EEB9
:100B6000602A37EE613A30EE610A31EE201A1F1822
:100B7000581932EE622A33EE633A30EE230A002926
:100B800031EE621A00F0CC800A998E1801EB0A034C
:100B900001EB0905594493ED007AD6ED010AD1ED38
:100BA000003A77EE202AD5ED014A72EEA35A75EE8F
:100BB000A45A13ED016AD6ED001A51ED016AD5ED84
:100BC000007AC3ED005A11ED018A76EE215A95EDB7
:100BD000009A35EE888A38EE098A03ED018A97ED8E
:100BE000028A97ED039A24EE08AA25EE09BA25EEAB
:100BF000085A24EE094A35EE444A37EE605A84ED2D
:100C0000034A36EE614A35EE666A33EEE47A36EE32
:100C1000276A74EE070A66EE091A20EE899A60EEDA
:100C2000880A26EE086A3AEE0BAA71EEE00A36EE62
:100C3000096A84ED02AAC1ED000A01ED016A90ED96
:100C4000046AD0ED050A62EE061A23EE208A23EE2E
:100C5000063A22EE202A33EE422A8CED032A32EEA7
:100C6000E32A35EEE63A71EE881A33EE673A32EE51
:100C7000642A0D98CCED021A62EE461A23EE066A3B
:100C800023EE203A22EE202A31EEC33A32EE462AF3
:100C9000013886ED013A86ED002A0D909EED062A78
:100CA0009EED073A0C9820EE026A61EE030A21EEEF
:100CB000021A20EE030A083031EE400A37EEE61A37
:100CC000DDF824E00C9088ED030A37EE440A31EE9B
:100CD000451A0B9821EE034A20EE033A20EE020A51
:100CE00036EE206A21EE021A34EE400A183088ED02
:100CF000026A85ED010A31EE030A089C0B9085ED2E
:100D0000000A069D07980EF1080E083410350830C9
:100D1000A9F10809083AABF1080BAAF1080ADBE6C9
:100D200097ED026A97ED037A64EE060A65EE071AFC
:100D300025EE065A24EE074A30EEA16A35EE444A03
:100D400084ED026A84ED034A90ED044A90ED055A61
:100D500022EE046A23EE057A23EE043A22EE052AF7
:100D600036EE074A33EE422A8CED024A8CED032A16
:100D70009EED062A9EED073A029D20EE024A21EEE4
:100D8000035A21EE021A20EE030A0A98059A34EE5D
:100D9000052A31EE400A2946042388ED022A88ED0F
:100DA000030A00F0C3F8049C0098626829460423F3
:100DB00000F0BCF8626801982946042300F0B6F8F8
:100DC00062680398294604230EB0BDEC088B01B07D
:100DD000BDE8F04F00F0AAB82DE9F04381B02DED49
:100DE000028B0C4600219046B1EB920F054674D061
:100DF0004FEA980795ED000A95ED011A20EE000ADA
:100E000021EE011A30EE018AB0EE480A03F07DFEB1
:100E1000B4EE400AF1EE10FA49D684ED000A95EDE1
:100E2000020A95ED031A20EE000A21EE011A30EEB7
:100E3000018AB0EE480A03F068FEB4EE400AF1EE13
:100E400010FA39D684ED010A95ED040A95ED051ADC
:100E500020EE000A21EE011A30EE018AB0EE480AB7
:100E600003F053FEB4EE400AF1EE10FA29D684EDF9
:100E7000020A95ED060A95ED071A20EE000A21EE0A
:100E8000011A30EE018AB0EE480A05F1200904F19A
:100E9000100603F03AFEB4EE400AF1EE10FA15D651
:100EA00084ED030A013F4D463446A3D113E0B0EE72
:100EB000480A03F02AFEB0E7B0EE480A03F025FE28
:100EC000C0E7B0EE480A03F020FED0E7B0EE480AD3
:100ED00003F01BFEE4E734464D4618F0030620D02D
:100EE00095ED000A95ED011A20EE000A21EE011A97
:100EF00030EE018AB0EE480A271D03F006FEB4EE7C
:100F0000400AF1EE10FA07D684ED000A013E05F121
:100F100008053C46E4D104E0B0EE480A03F0F5FDD4
:100F2000F2E7BDEC028B01B0BDE8F0832DE9F04F94
:100F300081B02DED108BA0B0DFED04CA009004301D
:100F4000CDE902320190CDE91E1101E0F304353FF5
:100F50001F9A4FF0000AD308DF00A7EBD200C000B1
:100F60001D904FEAC20C03EB430503EB83025801CB
:100F700006931E01019B2C014FEAC20EED00CDE944
:100F80000C0ECDE90A5600BF0A9D191803EB05099E
:100F90001D9D03EB0E0003EB070810ED014A86468A
:100FA0009A19181903EB050B13ED011A11ED012A1B
:100FB00018ED013A12ED017A50ED010A59ED011ACE
:100FC0005BED012A31EE025A33EE046A77EE203AE5
:100FD00071EEA24A75EE235A76EE246A75EEA67A71
:100FE00043ED017A75EEE65AD8ED007A9EED008A5F
:100FF00099ED00BA9BED00CAD3ED006A41ED015AAC
:10100000D1ED005A92ED009A90ED00AA37EE88EAF1
:101010007BEE0C8A36EEA5DA39EE0AFA35EE635A23
:1010200036EE646A7EEE684A7DEE0F9A7DEE4F3AA8
:1010300035EE24DA35EE645A7EEE28AA02ED01DAA6
:1010400033EEC6DA00ED015A36EE235A31EE421A7B
:1010500033EE442A37EE603A31EEE24A37EEC86AA0
:101060007BEE4C0A79EEAABA79EEEA9A72EE441A4D
:1010700032EE042A36EE604A36EE206AC3ED00BA3C
:10108000C1ED009A82ED00DA80ED005A36EEE55AA5
:1010900039EE4A7A61EEAC1A22EE2C2A24EE2C4A62
:1010A00026EE2C6A71EE210A73EE022A75EE043ADE
:1010B00077EE064A31EE611A33EE422A35EE443AB3
:1010C00037EE464A2646744670EEA45A70EEE40A9D
:1010D00031EE045A1F9A1E9948ED015A73EEE25AF6
:1010E0004BED010A72EEA30A204604ED015A33EEDD
:1010F000425ADDF834E0C8ED005ACBED000A84ED29
:10110000005A0C9831EE441A34460B9E924409ED75
:10111000011A32EE031A8A45634489ED001AFFF47E
:1011200033AF1F984028C0F0D4810298009E80B24F
:1011300005900698CDE90E4CC0EBC000C00000241D
:1011400001251097049000BF0598039B044403EB0E
:10115000C40191ED000A03EB04128DED1D0A92ED1E
:10116000000A04EB440203EBC2008DED1C0A90ED73
:10117000000A03EB44118DED1B0A91ED000A04EB0C
:101180008401C80003EBC1018DED1A0A91ED000A3C
:101190004FEAC20A4FEA021B03EB02128DED190A55
:1011A00092ED000AC4EBC4024FEAC40CD10003EB79
:1011B000C2028DED180A92ED000A0CF104024FEA0A
:1011C000041E1A448DED170A92ED000A0EF1040276
:1011D0001A448DED160A92ED000A0AF104024FEA54
:1011E00044191A448DED150A92ED000A09F1040222
:1011F0001A448DED140A92ED000A043018448DED66
:10120000130A90ED000A0BF1040018448DED120A48
:1012100090ED000A081D18440994D0ED006A079665
:10122000B44608952B46DDE90C54DDE90A76DDF875
:1012300010808DED110A00BF10980E990CEB050976
:101240000CEB000E0CEB04000CEB060B0CEB010A94
:101250000CEB07020CEB0801DCED027A99ED028A37
:101260009EED029A90ED02AA9BED02DA9AED02EA57
:1012700092ED02FAD1ED028A37EE88BA39EE0ACA47
:101280007DEE0E9A7FEE28AA7BEE29BAF0EE6C3A3C
:101290007CEE2ACA7BEEACDACCED02DA7BEEECBA5D
:1012A000DCED03CAD9ED03DADEED03EAD0ED03FA93
:1012B0009BED030A9AED031A92ED032A91ED033A8E
:1012C0003CEEAD4A3EEEAF5A30EE016A32EE037AA2
:1012D00074EE060A75EE071ADDED1A4ADDED135AB3
:1012E00070EEA12A70EEE10ACCED032A64EEAB1A8F
:1012F00065EEA02A71EEA21A64EEA00A65EEAB2A92
:1013000070EEE20AC9ED021AC9ED030A7BEE690A22
:101310007CEE6A1A34EE464A35EE475A9DED1CCAF9
:10132000DDED154A30EE856A34EE617A6CEE062A00
:1013300024EE87BA2CEE077A24EE866A30EEC55A80
:1013400031EE844ADDED180ADDED111A37EE466AFA
:101350008BED036A20EE856A21EE847A20EE844AC2
:1013600021EE855A37EE066A34EE454A39EE4A5A7E
:101370003FEE687A7EEEEF1A30EE410A32EE431A03
:101380007BEE222A35EE472A35EE073A31EEC15A76
:1013900031EE811ACBED022A8AED026A8AED034A08
:1013A00037EEC84A3DEE4E6A7CEEED0A22EE232A65
:1013B00023EE233A25EE235A21EE231AF0EE63CAD8
:1013C00034EE027A76EE031A70EE852A70EE017A18
:1013D000DDED1D3ADDED164A37EE278A32EEE19A51
:1013E00023EE88AA24EE89BA23EE899ADDED173A16
:1013F00037EE677A71EEA21A63EE872A66EEA17A5B
:1014000063EEA11A26EE877A24EE888A31EEC77A37
:1014100034EE422A36EE433A30EEC54A30EE410A07
:10142000DDED190ADDED121A39EE488A32EE001AA6
:1014300034EE435A8EED038A81ED037A20EE816A01
:1014400021EE857A20EE855A21EE811A3AEE0BAA1A
:1014500072EEA72A36EE076A35EE411A8EED02AA21
:10146000C1ED022A80ED026A80ED031A1F9833EE67
:10147000041A03441E989DED1B4A9DED145A32EE4A
:10148000400A83420F9824EE002A25EE013A24EE0A
:10149000011A25EE000A32EE032A31EE400A844496
:1014A00082ED022A82ED030AFFF4C6AE089D06987B
:1014B000079E0135099C854206F10806FFF444AEFB
:1014C0000298C00002901F983F2806981F903FF690
:1014D0003FAD20B0BDEC108B01B0BDE8F08F10B572
:1014E0000146806B026C12F0500F05D0026CD206E0
:1014F00026D500F0B7FA10BD016C41F4007101640B
:1015000001688A6812F0405F17D1027EAAB9CA6AE0
:1015100012F4700F02D08A6852050ED44A6822F085
:1015200020024A60016C21F480710164016CC904DD
:1015300003D4016C41F00101016400F091FA10BD87
:10154000806BC26CBDE810400846104710B5806B38
:1015500040210164416C41F00401416400F082FAD1
:1015600010BD10B5806B00F07CFA10BD014800F092
:101570007ABA000018620120464910B54A6822F480
:1015800040324A604A6843681A434A6001684A68C0
:1015900022F480724A6001684A68036942EA0322C1
:1015A0004A6001684A6822F040724A6001684A68ED
:1015B00083681A434A6001688A6822F400628A607C
:1015C00001688A68C3681A438A60816A6FF0706232
:1015D000D14201688A6822F070628A6001688A6874
:1015E0000CD0836A1A438A6001688A6822F04052EC
:1015F0008A6001688A68C36A1A4301E022F0405297
:101600008A6001688A6822F002028A6001688A683A
:10161000037E42EA43028A6090F8201000290168A4
:101620004A680FD042F400624A6001684A6822F4B6
:1016300060424A6001684A68174C436A04EB4333CE
:101640001A4301E022F400624A600168CA6A22F487
:101650007002CA620168CA6A838B104C04EB0353A0
:101660001A43CA6201688A6822F400728A600168BB
:101670008A6890F8303042EA43228A6001688A68BA
:1016800022F480628A6001688A68406942EA8020A8
:10169000886010BD0023014000E0FFFF0000F0FF64
:1016A000154810B590ED000A14481549B8EE400AE7
:1016B000D0ED000A80EE201ABDEEC10A10EE100A2D
:1016C00000EB800040004860B0F5805F02DB40F630
:1016D000FF704860002049680A4A0B4B09E000BFD0
:1016E00002EB800494ED000A03EB8004401C84EDBF
:1016F000000A8842F4DB10BD0C010020100100201C
:10170000080000201822012094010020FEE70000BC
:10171000014800F02FBC000038670120014800F0AC
:1017200029BC0000E8640120014800F023BC00004F
:10173000D462012010B5034800F01CFC02490120CE
:10174000087010BD60620120F4000020014800F024
:1017500011BC00008864012001681823CAB2103A45
:10176000B2FBF3F2054B6FF30901032A9B5CC365DF
:1017700000D9091D816508467047000092B800082D
:1017800010B5014600208B698A6A4FF0C07453B1CE
:10179000B3F5005F15D072B1012A0CD0022A0AD02D
:1017A000032A09D104E01AB1012A06D0022A03D182
:1017B000C96AC90100D5012010BDC96AA142FAD089
:1017C00010BD002AF7D0012AF2D0022AF3D0032A52
:1017D000F3D010BD30B50468256825F48025256058
:1017E000046863608368402B036803D099600068D5
:1017F000C26030BD9A600068C16030BD70470000B3
:10180000044940F2CF10086003494FF6FF700860AA
:10181000704700000400002000000020102000F0AD
:1018200089BD72B6FEE7000030B5B3F5804F05D034
:101830006FF0704140F82210002030BD8C690B68B9
:101840008D6823434C688989240144EA0524234395
:1018500043EA014150F82230014C23401943E9E7A3
:101860000000F0CF10B50A6850F8223023F00103D1
:1018700040F822308C68082C23D000234A68224389
:10188000CC681C430B6922431A434B690E4C1A4324
:10189000CB691A430B6A1A434B6A1A438B6A1A4381
:1018A000CB6A1A430B6B1A438B691343CA6B0968E3
:1018B0001A4350F82130A343134340F8213000204D
:1018C00010BD4023DAE700007FFF0F0030B5D1E9FB
:1018D000003443EA04138C688D89240244EA0544E9
:1018E00023430C8A094D00EB820005EB045423438B
:1018F0000C7D6D0105EB0464896923430B4341684A
:1019000001F040410B434360002030BD0000F0FF78
:101910007047000078B50024009490F83C20012A1C
:1019200019D0012280F83C200A6807230568092A9B
:1019300013D9EE680A3A02EB420293409E43EE60EE
:101940000B788A680A3B03EB43039A400368DD681F
:101950002A43DA6010E0022078BD2E6902EB4202D1
:1019600093409E432E610B788A6803EB43039A40B1
:1019700003681D692A431A614A681F23072A13D284
:1019800005686E6B521E02EB820293409E436E63AB
:101990000B790A885B1E92B203EB83039A400368BB
:1019A0005D6B2A435A6327E005680D2A12D22E6B1D
:1019B000D21F02EB820293409E432E630B790A886A
:1019C000DB1F92B203EB83039A4003681D6B2A432B
:1019D0001A6311E0EE6A0D3A02EB820293409E43D5
:1019E000EE620B790A880D3B92B203EB83039A40B7
:1019F0000368DD6A2A43DA62164B0568144A9D4281
:101A000006D10D68122D03D1556845F48005556047
:101A100005689D4218D10B68102B01D0112B13D1F2
:101A2000536843F400035360096810290CD10A4934
:101A30000A4A0968B1FBF2F101EB8101490000E0BB
:101A4000491E00910029FBD180F83C40002078BD60
:101A500000230140002001402801002040420F00E7
:101A600070477047704770B504460068066845685F
:101A700016F0020F05F020012AD049B3216CC906E7
:101A800003D4216C41F400712164816811F0405F3E
:101A900017D1217EA9B9C16A11F4700F02D08168F3
:101AA00049050ED4416821F020014160206C20F4EA
:101AB00080702064206CC00403D4206C40F00100CE
:101AC00020642046FFF7CCFF21686FF01200086009
:101AD00016F0040F05F0800132D089B3206CC006E7
:101AE00003D4206C40F4005020642068816811F415
:101AF000401F1ED1816B11F4401F02D0816849053F
:101B000017D44168490514D4816811F0405F10D1A1
:101B1000217E71B9416821F080014160206C20F480
:101B200080502064206CC00503D4206C40F001007C
:101B300020642046FFF7ECFE21686FF00C0008607F
:101B400016F0010F05F040010FD071B12068006858
:101B5000C0070AD0206C40F480302064204600F09A
:101B600043F821686FF00100086016F0200F05F0BF
:101B700080610ED000290CD0606C40F002006064DF
:101B800020686FF0200505602046FFF76BFF206896
:101B9000056070BD70B504004FF0000503D0206CE7
:101BA000002610B107E0012070BD204600F01EF8AD
:101BB000666484F83C60206CC00610D4206C20F46D
:101BC000885040F0020020642046FFF7D5FC666490
:101BD000206C20F0020040F00100206400E00125AC
:101BE00084F83C60284670BD7047000070B586B030
:101BF000064614216846FEF71DFB224930688842DC
:101C00003DD121480025016841F4807101600068E0
:101C100000F4807005901C481438016841F00101FF
:101C200001600068694600F0010005900420009002
:101C30000320CDE90105154800F088FB154C144838
:101C4000C4E900050015A560C4E9035040006061C7
:101C50008000C4E906054FF44030C4E90805204679
:101C600000F058FA08B1FFF7DCFDB463002202214E
:101C70001220A66300F0DAFD122000F0C9FD06B0C4
:101C800070BD0000002001404438024000000240C6
:101C90001064024060620120F8B5044600200E4640
:101CA000009094F83C10012907D0012184F83C10E1
:101CB00021688B68DB0702D011E00220F8BD8B6839
:101CC00043F001038B604049404B0968B1FBF3F1DD
:101CD00001EB410100E0491E00910029FBD1216880
:101CE0008B68DB0503D58B6823F480738B602168D8
:101CF0008B68DB075DD0236C40F20165AB4343F496
:101D0000807323644968490505D5216C21F400518D
:101D100041F480512164216CC90404D5616C21F027
:101D20000601616400E0606484F83C00A16B29480E
:101D3000274DC863A16B28480864A16B2748C86475
:101D400021686FF0220008602068416841F08061DE
:101D500041602068816841F4807181602168134688
:101D600032464C31A06B00F03FFA68681C49C0064F
:101D7000206806D0884224D1816811F0405F13D0DA
:101D80001FE08842F8D0174A904203D1D1F80423CB
:101D9000D206F1D0144A904213D1D1F8041301F0C5
:101DA0001F011029E8D30CE0816841F08041816077
:101DB00007E0206C40F010002064606C40F00100EF
:101DC00060640020F8BD00002801002040420F00A0
:101DD00000230140DF140008631500084D150008BA
:101DE000002001400021014000220140704770B5F1
:101DF0004379012B1CD0012646710223037105682B
:101E00002B6802F0100440F6FE72A2409343D1E921
:101E100000210A43A2401A432A6001680A68C023CD
:101E2000A3409A430A60067100214171084670BDC3
:101E3000022070BD704770B50446006801684FF01D
:101E40000405890411D5416B89040ED525712169DA
:101E500041F001012161E90241632068016821F438
:101E6000805101602046FFF7E5FF20680168890086
:101E700014D5416B890011D52571216941F002010A
:101E800021614FF0005141632068016821F08051C9
:101E900001602046BDE87040FFF7A8BF70BD70B577
:101EA000040003D02079002510B105E0012070BDA9
:101EB0006571204600F008F802202071256101209C
:101EC0002071002070BD000070B586B00646142158
:101ED0006846FEF7AFF92249306888423ED1214872
:101EE0000025016841F000510160006800F00050D9
:101EF00005901C481038016841F00101016000683C
:101F0000694600F001000590302000900320CDE9E3
:101F10000105154800F01AFA154C144820604FF0DE
:101F2000606060604020C4E902050001206140005B
:101F300060618000C4E9060525622046656200F004
:101F4000E9F808B1FFF76DFCB460002211463620B5
:101F5000A66300F06BFC362000F05AFC06B070BDA2
:101F60000074004040380240000002408860024097
:101F7000D46201202DE9F84304464FF00009CDF862
:101F8000009063484FF41651A56D0068B0FBF1F75F
:101F90002E6894F85C10082000FA01F131420FD04D
:101FA00021680A6852070BD50A6822F004020A6009
:101FB00094F85C108840A860606D40F00100606596
:101FC00094F85C104FF0010808FA01F0304208D094
:101FD00021684969090604D5A860606D40F00200D7
:101FE000606594F85C1004208840304208D0216875
:101FF0000968890704D5A860606D40F00400606539
:1020000094F85C1010208840304218D0216809688C
:10201000090714D5A86020680168490304D5006841
:10202000000308D5A16C07E00168C90503D4016865
:1020300021F008010160216C09B12046884794F81D
:102040005C1020208840304231D021680968C906E0
:102050002DD5A86094F8350005282068016806D0C1
:10206000490347D5006800031DD4616C1CE021F0D2
:10207000160101602068416921F080014161206CF6
:1020800008B9A06C20B12068016821F00801016046
:1020900094F85C103F208840A86084F8358084F86C
:1020A0003490216D1FE0E16B09B120468847606DD7
:1020B00000282BD0606DC00714D0052084F83500AF
:1020C0002068016821F0010101600098401C009027
:1020D000B84203D820680068C007F6D184F835807C
:1020E00084F83490E16C002910D001B02046BDE89E
:1020F000F04308470168C905D5D4016821F01001F3
:10210000016084F8358084F83490CCE7BDE8F8832A
:10211000280100202DE9F041044600F021FA06468E
:102120005CB1022084F83500002584F83450206822
:10213000016821F0010101600DE00120BDE8F0819E
:1021400000F00EFA801B052805D9202060650320C9
:1021500084F83500F2E720680068C007F0D12268F3
:10216000116820480140D4E901031843D4E903363B
:102170003343184363691843A3691843E369184359
:10218000236A18430843616A042903D1D4E90B1375
:1021900019430843106020684069666A20F007010F
:1021A00030460E43012704280CD1A06A0643E06A9A
:1021B00040B12046FFF7E4FA20B14020606584F882
:1021C0003570BAE7206846612046FFF7C5FA94F8F3
:1021D0005C203F2191408160656584F83570002066
:1021E000ACE700003F8010F02DE9F0410446866D19
:1021F00090F83400002501280DD0012084F8340027
:1022000094F835700020012F07D084F8340002259F
:102210002846BDE8F0810220FBE7022784F83570EC
:1022200060652046FFF7D6FA94F85C103F2088409E
:10223000B0602068016841F016010160206C20B197
:102240002068016841F0080101602068016841F0E0
:1022500001010160DCE7000070B5044600F080F980
:102260000546601C02D004480078044400F078F968
:10227000401BA042FAD370BD1C0100202DE9F041A3
:1022800086B014216846FDF7D5FF20480168002973
:1022900039D1012101601E480024016841F001018B
:1022A000016000684FF4805800F001000C27CDF861
:1022B0000080CDE90470032602250396CDE9015480
:1022C0006946144800F042F84FF68070CDE90005E9
:1022D00002AA694682E8D0000F4800F037F84CF2B5
:1022E0003370CDE9000502AA694682E8D0000B48A8
:1022F00000F02CF802AA694682E8D000CDE90085FA
:10230000074800F023F806B0BDE8F0811401002072
:10231000383802400014024000100240000C024015
:1023200000180240102802D1014800F0E9BF7047B0
:1023300068660120044910B50A68024202D00860AC
:10234000FFF7F0FF10BD0000143C01402DE9F84FED
:10235000DFF8BCA10022012503264FF00F090AF186
:10236000040BAAF1040E00BF0B6805FA02F4234027
:10237000A34270D10F7907F00307012F01D0022F7C
:1023800016D187684FEA420806FA08FC27EA0C07CC
:10239000D1F80CC00CFA08FC4CEA070CC0F808C0D5
:1023A0004768A7430C79C4F3001494403C4344604D
:1023B0000C79E443A4070AD0C4684FEA420C06FA39
:1023C0000CF7BC438F6807FA0CF72743C7600C79FA
:1023D00004F00304022C12D1D40800EB840CDCF8C6
:1023E00020405707FF0E09FA07F824EA0804D1F83D
:1023F000108008FA07F848EA0408CCF8208004683E
:102400004FEA420C06FA0CF7BC430F7907F00307BA
:1024100007FA0CF7274307604C6814F4403F70D06C
:102420003C4C276847F480472760246822F0030764
:1024300004F480440094384C07EB040CDCF80848A2
:1024400097074FEA177809FA08F7BC43334FB842A9
:1024500002D1002724E054E0314FB84201D10127D6
:102460001EE0304FB84201D1022719E02E4FB8428A
:1024700001D1032714E02D4FB84201D104270FE00A
:102480002B4FB84201D105270AE02A4FB84201D1AB
:10249000062705E0284FB84201D1072700E00827AA
:1024A00007FA08F72743CCF80878DAF800405746CF
:1024B000D1F804C09C435FEACC2C00D51C433C609F
:1024C000DBF800405F46D1F804C09C435FEA8C2CE7
:1024D00000D51C433C60DEF800407746D1F804C0CC
:1024E0009C435FEA8C3C00D51C433C60084F083F8E
:1024F0003C68D1F804C09C435FEACC3C00D51C4347
:102500003C60521C102AFFF42FAFBDE8F88F00008A
:10251000083C0140443802400030014000000240C5
:102520000004024000080240000C0240001002407B
:102530000014024000180240001C024000690840DC
:1025400000D001207047426921EA02030A4043EAB1
:102550000241816170470AB1816170470904FBE75C
:1025600001488068704700001C01002070B504001D
:1025700025D094F83D00002520B984F83C50204631
:1025800000F0B8F8242084F83D002068016821F0AC
:10259000010101602068016841F400410160206888
:1025A000016821F40041016000F00CFA4D4A6168B5
:1025B000914201D84C4900E04C49884201D20120A7
:1025C00070BD4B492368B0FBF1F15E6826F03F0611
:1025D0000E435E606368934206D94FF49673594385
:1025E0004FF47A73B1FBF3F12368491C1E6A26F09D
:1025F0003F06314319626168914210D84900401E7C
:10260000B0FBF1F2521CC2F30B02042A01D20420E7
:1026100022E0B0FBF1F0401CC0F30B001CE0A2680C
:10262000F2B301EBC10303EB0116431EB3FBF6F358
:102630005B1C43F480431B0549D092B301EBC102FC
:1026400002EB0111401EB0FBF1F0401CC0F30B0087
:1026500040F4804040F400402168CA694CF6FF73A2
:102660009A431043C861D4E9071001432068026807
:1026700022F0C00211430160D4E903010143206844
:10268000826848F2FF339A4311438160D4E905011F
:1026900008432168CA6822F0FF021043C86001E0C5
:1026A0000EE016E02068016841F001010160256438
:1026B000202084F83D00256384F83E50002070BD42
:1026C00001EB4106431EB3FBF6F35B1CB3E70120AD
:1026D000C2E701EB4101401EB0FBF1F0401CC0F32A
:1026E0000B00B7E7A086010080841E0000093D00B2
:1026F00040420F0010B586B0044614216846FDF72D
:1027000099FD13492068884220D1124800210268AF
:1027100042F002020260006800F002000590C02052
:1027200000901220CDE901010320039004200490C1
:1027300069460948FFF70AFE06481030016841F46F
:1027400000110160006800F40010059006B010BD93
:1027500000540040303802400004024002488168C2
:1027600002781144816070471C0100200B4810B5AD
:10277000016841F400710160016841F48061016009
:10278000016841F480710160032000F06FF80F20B0
:1027900000F006F800F024F8002010BD003C0240D4
:1027A00070B50D4D04464FF47A712878B1FBF0F006
:1027B0000A490968B1FBF0F000F04AFC48B9102C56
:1027C00007D200222146501E00F030F800206C6035
:1027D00070BD012070BD00001C01002028010020F8
:1027E0000A4808B5016841F480410160006800F4BE
:1027F000804000900548001F016841F08051016051
:10280000006800F08050009008BD0000443802408D
:10281000002809DB00F01F020121914040098000DF
:1028200000F1E020C0F8001170470000F0B40E4B3A
:102830001B680C46C3F30223C3F10705042D00D91E
:102840000425191D072901D2002300E0DB1E012603
:1028500006FA05F1491E214099409E40761E164019
:102860003143F0BC02F004B90CED00E0064900F081
:10287000070208684FF6FF03184040EA0220034AA7
:1028800010430860704700000CED00E00000FA05FE
:102890002DE9F0470E46050065D0DFF81481D8F821
:1028A0000000F7B200F00700B04207D288F80070CD
:1028B000D8F8000000F00700B04254D128683D4C21
:1028C000810712D5400703D5206840F4E05020600E
:1028D0002878000703D5206840F460402060206815
:1028E000A96820F0F000084320602878C0072DD0A8
:1028F000304968680839012812D0022813D003280B
:1029000011D00968890700292DDA216821F0030117
:1029100001432160FFF724FE814641F2883A0EE030
:1029200009688903EFE709688901ECE7FFF718FEFA
:10293000A0EB0901514502D90320BDE8F0872068CA
:10294000696800F00C00B0EB810FEFD1D8F80010EF
:10295000404601F00701B14207D90770006800F056
:102960000700B04201D00120E7E72878400705D5ED
:102970002068E96820F4E0500843206028780007C8
:1029800006D52068296920F4604040EAC100206033
:1029900000F038F82168084AC1F30311515CC840BF
:1029A0000649086006480068FFF7FAFE0020C4E701
:1029B000003C0240083802409AB800082801002074
:1029C000200100200448054900680968044AC1F351
:1029D0008221515CC840704728010020083802401D
:1029E000AAB800080448054900680968044AC1F308
:1029F0004231515CC840704728010020083802402D
:102A0000AAB80008154810B5006810F00C02144868
:102A100013D01449042A0FD0082A0ED10F4C241FBA
:102A20002268236802F03F025B0207D52068C0F3EA
:102A30008810A0FB010106E0084610BD2168C1F323
:102A40008811A1FB00010023FDF7BCFB2168C1F345
:102A50000141491C4900B0FBF1F010BD08380240AB
:102A60000024F40040787D012DE9F84F04006ED079
:102A70002078DFF84C93C007A9F104054AD009F18A
:102A800004000168C1F38101012908D00068C0F386
:102A9000810002280AD1D9F80000400206D5286832
:102AA000800337D560680028E1D033E06068B0F576
:102AB000803F10D0B0F5A02F286810D020F48030CF
:102AC0002860286820F4802028606068A8B1FFF79B
:102AD00047FD06460DE0286840F48030F4E740F4F6
:102AE00080202860F7E700BFFFF73AFD801B6428CD
:102AF00073D828688003F7D50CE0FFF731FD064650
:102B000005E000BFFFF72CFD801B6428F0D8286883
:102B10008003F7D42078DFF8AC8280074FF0000AFA
:102B20003ED5A748001D016811F00C0F08D00068C1
:102B3000C0F3810002280BD1D9F80000400207D46D
:102B40002868800716D5E068012800D112E033E13B
:102B5000E068B8B10120C8F80000FFF701FD0646A3
:102B600005E000BFFFF7FCFC801B0228C0D82868E6
:102B70008007F7D52868216920F0F80040EAC100F5
:102B800028600DE0C8F800A0FFF7EAFC064604E064
:102B9000FFF7E6FC801B02281FD828688007F7D4BF
:102BA0002078000722D5864F87486169703771B158
:102BB00001210160FFF7D4FC064604E0FFF7D0FCDA
:102BC000801B022809D838688007F7D50EE0C0F8C6
:102BD00000A0FFF7C5FC064605E082E0FFF7C0FC59
:102BE000801B02287DD838688007F7D420784007FA
:102BF00068D5DFF8CCB100270BF13C0BDBF8000007
:102C0000C0000BD4DBF8001041F08051CBF800106D
:102C1000DBF80000012700F0805000906B4E306818
:102C2000C00510D4306840F480703060FFF798FC25
:102C3000009005E0FFF794FC0099401A022850D854
:102C40003068C005F6D55E4EA0686C3601280FD0FE
:102C50000528306810D020F001003060306820F086
:102C600004003060A068B8B1FFF77AFC00900FE074
:102C7000306840F00100F4E740F004003060F7E70E
:102C8000FFF76EFC0099411A41F28830814266D804
:102C900030688007F4D50EE0FFF762FC009007E093
:102CA000FFF75EFC0099411A41F28830814256D804
:102CB00030688007F4D42FB1DBF8001021F0805188
:102CC000CBF80010A069C8B33D49091D0968C1F3DC
:102CD000810102294AD00228504607D0C8F8600076
:102CE00000E03CE0FFF73CFC04463BE04746C8F808
:102CF0006000FFF735FC064605E000BFFFF730FC3B
:102D0000801B02282BD828688001F7D4D4E907015A
:102D10000843A16A2E4A490802EB0141626A41EA6E
:102D20008211084394F82C1040EA0161C9F80010A0
:102D300001203866FFF714FC044606E03EE000BFC1
:102D4000FFF70EFC001B022809D828688001F7D580
:102D500034E000BFFFF704FC001B022802D9032067
:102D6000BDE8F88F28688001F4D427E00128F7D067
:102D7000D9F80000E26900F4800191421CD1226A76
:102D800000F03F01914217D147F6C071626A0140DD
:102D9000B1EB821F10D1A26A4FF0FF3300F4403133
:102DA00003EB5202B1EB024F06D194F82C1000F065
:102DB0007060B0EB016F01D00120D1E70020CFE7B8
:102DC0000438024000004742800E47420070004035
:102DD0000000FFFF70B5040009D0606A002540B113
:102DE00025616561A56294F8510040B10CE00120B5
:102DF00070BD6068B0F5827FF4D0E561F2E784F8D9
:102E00005050204600F044F8022084F85100206819
:102E1000016821F040010160A088218900F48270DE
:102E200001F404410843A18901F400610843217CB5
:102E300001F002010843217D01F001010843218BCB
:102E400001F400710843217F01F03801084394F830
:102E5000201001F080010843218D01F40051084346
:102E600021680860A069042101EA104094F8241048
:102E700001F010010843216848602068C16921F40D
:102E80000061C1616565012084F85100002070BDBA
:102E90002DE9F04F87B0054614216846FDF7CAF9C1
:102EA0004A4A296800244A48032705264FF00208A9
:102EB0004FF008094FF0400B4FF4806A914240D127
:102EC000434914310A6842F480520A60096801F4E7
:102ED00080510591016841F001010160016801F034
:102EE00001010591016841F0020101600068CDE92E
:102EF000024700F0020005908020CDE900086946F5
:102F000004963448FFF722FACDE90247CDE900984C
:102F1000694631480496FFF719FA314E2F48306060
:102F2000C6E9034A7461B461F4613462780674627C
:102F3000C6E9010B304641E0AE64B56307B0BDE8B9
:102F4000F08F284A9142F9D1214910310A6842F4A0
:102F500080420A60096801F480410591016841F0EE
:102F600004010160016801F004010591016841F06C
:102F7000020101600068CDE9024700F00200CDE9DE
:102F80000460CDE9009869461748FFF7DFF9CDE9FD
:102F90000247CDE900A8D14669460F480496FFF7DD
:102FA000D5F90F4E1148603686E81108C6E9034985
:102FB0007461B461F461346230467462FFF7AAF858
:102FC0000028B9D0FEF72DFCB6E700000030014024
:102FD00030380240000002400004024058640240C1
:102FE0008864012000380040000802407060024000
:102FF00070B515460E46040003D094F8490010B190
:1030000007E0012070BD002084F84800204600F051
:103010001DF804F108012068FEF724FC3146A2687F
:103020002068FEF753FCD4E901022946236BFEF722
:10303000FBFB2168A06851F8202042F0010241F812
:103040002020012084F84900002070BDFFF716B948
:1030500010B5401EB0F1807F01D3012010BD4FF0AC
:10306000E02460610F21601701F002FD0020A061E3
:1030700007202061002010BD7047704770B590F8A0
:103080003C20012A32D0012480F83C40022280F802
:103090003D2003685A689D6822F070060A68324332
:1030A0005A60134B02689A4214D0B2F1804F11D08B
:1030B000104B9A420ED0104B9A420BD00F4B9A42B3
:1030C00008D00F4B9A4205D00E4B9A4202D00E4BBD
:1030D0009A4204D1496825F080031943916080F831
:1030E0003D40002180F83C10084670BD022070BDB4
:1030F000000001400004004000080040000C0040B7
:1031000000040140004001400018004010B50400D8
:1031100003D094F83D0010B107E0012010BD00205D
:1031200084F83C00204600F01FF8022084F83D009F
:10313000211D206801F0A8F9012084F8460084F8D8
:103140003E0084F83F0084F8400084F8410084F891
:10315000420084F8430084F8440084F8450084F871
:103160003D00002010BD000030B587B0044614219A
:103170006846FDF75FF8216800243C48B1F1804FB4
:1031800038D03B4A91423DD1016841F002010160D3
:10319000006800F00200059034481038016841F0E2
:1031A00001010160016801F001010591016841F030
:1031B000040101600068022500F004000590402031
:1031C0000090CDE9015469462A48CDE90345FFF74F
:1031D000BDF880200090CDE9015469462648CDE92C
:1031E0000345FFF7B3F8002211461D20FFF71EFB31
:1031F0001D2018E0016841F001010160006800F045
:1032000001001EE01D4A914211D1016841F0040104
:1032100001600068002200F00400059011461E20A5
:10322000FFF704FB1E20FFF7F3FA07B030BD144A86
:10323000914208D1016841F008010160006800F086
:1032400008000590F1E70F4A9142EED1016841F084
:10325000100101600068002200F010000590114686
:103260003620FFF7E3FA3620DDE700004038024061
:103270000004004000000240000802400008004036
:10328000000C00400010004090F83D10012901D0D2
:1032900001207047022180F83D10006811498842E2
:1032A00014D0B0F1804F11D00F4988420ED00F4991
:1032B00088420BD00E49884208D00E49884205D07A
:1032C0000D49884202D00D49884204D1816801F03D
:1032D0000701062903D0016841F0010101600020C7
:1032E000704700000000014000040040000800405A
:1032F000000C004000040140004001400018004064
:1033000090F83D10012901D001207047022180F87A
:103310003D100168CA6842F00102CA6000681149A4
:10332000884214D0B0F1804F11D00F4988420ED09E
:103330000E4988420BD00E49884208D00D49884278
:1033400005D00D49884202D00C49884204D18168D9
:1033500001F00701062903D0016841F00101016075
:1033600000207047000001400004004000080040B9
:10337000000C0040000401400040014000180040E3
:103380000168CA6822F00102CA6001680A6A41F253
:1033900011131A4207D10A6A9B101A4203D10A6814
:1033A00022F001020A60012180F83D1000207047E0
:1033B00070B5044690F83C000025012817D001267E
:1033C00084F83C60022084F83D002068826822F086
:1033D000770222F47F4282600868502838D00DDCE2
:1033E00020284FD005DC90B3102811D14AE00220EC
:1033F00070BD302846D040280AD13BE060282FD04D
:1034000070280DD0B0F5805F03D0B0F5005F12D00A
:10341000012584F83D60002084F83C00284670BDFA
:10342000CB68D1E90121206801F09FF8206881680C
:1034300041F0770109E0CB68D1E90121206801F072
:1034400094F82068816841F480418160E1E719E0E7
:10345000CA684968206801F0A3F95021206806E095
:10346000CA684968206801F0EDF96021206801F020
:1034700086F8CEE7CA684968206801F091F94021D2
:103480002068F4E7226801461046F0E770B505466B
:10349000007F124C01280FD10021114800F0D6FA0C
:1034A00000EE100AB8EE400A84ED030AD4ED040AD7
:1034B00080EE801A84ED051A287F022809D10421A4
:1034C000074800F0C3FA00EE100AB8EE400A84ED97
:1034D000040ABDE8704000F051BF0000F400002075
:1034E000906501202DE9F041054690F83C0000264A
:1034F0000C46012810D0012085F83C0072B1042A46
:103500001CD0082A2CD00C2A50D00126002085F887
:103510003C003046BDE8F0810220FBE7D4E9001210
:10352000E368286801F04EF92868816921F00C01F0
:10353000816128688169A26811430FE0D4E9001213
:10354000E368286801F090F92868816921F44061F6
:10355000816128688169A26841EA02218161D5E719
:103560002868D4E9002C277B016A21F4807101626C
:10357000C169036A21F0030141EA0C0121F0F00C5A
:1035800039074FF420674CEA116123F4206307EAFE
:1035900002221A43C16102622868C16921F00C014C
:1035A000C1612868C169A268114328E02868D4E98C
:1035B0000027E168036A23F480530362D0F81CC03B
:1035C000036A2CF4407C4CEA07274FF6FF7C27F473
:1035D00070470CEA013139434FF4204723F420436C
:1035E00007EA02321A43C16102622868C16921F404
:1035F0004061C1612868C169A26841EA0221C161D4
:1036000084E710B5040003D094F83D0010B107E042
:10361000012010BD002084F83C00204600F01EF878
:10362000022084F83D00211D206800F02DFF0120BC
:1036300084F8460084F83E0084F83F0084F8400097
:1036400084F8410084F8420084F8430084F8440080
:1036500084F8450084F83D00002010BD704700004C
:1036600030B50446002551B104290DD0082910D0E9
:1036700094F8410094F84520012811D10EE094F807
:103680003E0094F84220F7E794F83F0094F8432076
:10369000F2E794F8400094F84420EDE7012A01D0C5
:1036A000012030BD022059B1042912D0082919D0B7
:1036B00084F8410084F845000C2944D0012540E0FD
:1036C00084F83E0084F842002068C26842F002029A
:1036D00010E084F83F0084F843002068C26842F09C
:1036E000040207E084F8400084F844002068C268BF
:1036F00042F00802C2600122206800F029FF14494C
:103700002068884214D0B0F1804F11D0114988420E
:103710000ED0114988420BD01049884208D0104978
:10372000884205D00F49884202D00F49884204D10F
:10373000816801F00701062903D0016841F0010109
:103740000160284630BD2068C26842F01002D1E70F
:10375000000001400004004000080040000C004050
:1037600000040140004001400018004070B50446CC
:10377000006801694FF00005C943890715D4C16885
:10378000C943890711D4E91E01610120207720680F
:1037900080698007204602D0FFF778FE04E000F041
:1037A00098F8204600F02AF9257720680169C94376
:1037B000490717D4C168C943490713D46FF00401FE
:1037C0000161022020772068806910F4407F204644
:1037D00002D0FFF75BFE04E000F07BF8204600F02B
:1037E0000DF9257720680169C943090716D4C16816
:1037F000C943090712D46FF0080101610420207742
:103800002068C0698007204602D0FFF73FFE04E031
:1038100000F05FF8204600F0F1F825772068016994
:10382000C943C90617D4C168C943C90613D46FF088
:1038300010010161082020772068C06910F4407FE2
:10384000204602D0FFF722FE04E000F042F82046B6
:1038500000F0D4F8257720680169C943C90708D169
:10386000C168C943C90704D1891E0161204600F01F
:10387000C7F820680169C943090609D4C168C9436A
:10388000090605D46FF0800101612046FFF7F4FBC3
:1038900020680169C943490609D4C168C94349067A
:1038A00005D46FF040010161204600F00FF9206857
:1038B0000169C94389060BD4C168C943890607D485
:1038C0006FF0200101612046BDE87040FFF7D5BBD5
:1038D00070BD704770B5044690F83C0000260D4658
:1038E00001280FD0012084F83C006AB1042A1DD0C1
:1038F000082A2FD00C2A3FD00126002084F83C0053
:10390000304670BD022070BD206800F041FE206886
:10391000816941F0080181612068816921F0040119
:103920008161206881692A69114311E0206800F0F3
:103930005FFE2068816941F40061816120688169CE
:1039400021F480618161206881692A6941EA02214C
:103950008161D2E7206800F081FE2068C16941F0F2
:103960000801C1612068C16921F00401C1612068BA
:10397000C1692A69114311E0206800F0A3FE2068A4
:10398000C16941F40061C1612068C16921F48061AD
:10399000C1612068C1692A6941EA0221C161ACE7BD
:1039A00010B5040003D094F83D0010B107E00120E9
:1039B00010BD002084F83C00204600F01EF80220D4
:1039C00084F83D00211D206800F05EFD012084F890
:1039D000460084F83E0084F83F0084F8400084F8F4
:1039E000410084F8420084F8430084F8440084F8DD
:1039F000450084F83D00002010BD7047704700006E
:103A00000E4910B5884218D10846FFF7B9FC1021BD
:103A10000B48FEF793FD00280FD10A480A4C816835
:103A2000494281604FF400712046FEF78CFD21155C
:103A30002046BDE81040FEF786BD10BD6866012037
:103A400000100240F4000020001402400246002052
:103A500041B1042909D008290AD00C2901D11068E4
:103A6000006C70471068406B70471068806B70473F
:103A70001068C06B704770B5044690F83C00012890
:103A800012D0012584F83C50022084F83D002046E5
:103A900000F040FE01004FF0000007D084F83D50D8
:103AA00084F83C00012070BD022070BD2168CA6806
:103AB00022F04002CA602168CA6822F48042CA60CB
:103AC00084F83D5084F83C00002070BD704770B50C
:103AD000040004D094F83D00002510B106E0012058
:103AE00070BD84F83C50204600F022F8242084F871
:103AF0003D002068C16821F40051C160204600F0FB
:103B0000CFFE2068016921F490410161206841697C
:103B100021F02A0141612068C16841F40051C1606F
:103B20002564202084F83D0084F83E00002070BD0C
:103B30002DE9F04387B0064614216846FCF77AFB6E
:103B4000384B316800253848022403270722994260
:103B50001CD1354914310B6843F010030B60096820
:103B600001F010010591016841F001010160006858
:103B7000049200F00100059078028DE8B1006946DA
:103B80002A48FEF7E3FB07B0BDE8F083284B9942D3
:103B9000F9D1254910310B6843F480230B60096883
:103BA00001F480210591016841F002010160016882
:103BB00001F002010591016841F004010160006813
:103BC000904600F0040005904FF400608DE8B101CC
:103BD00069461848FEF7BAFB4FF4806901ABCDF88F
:103BE000009083E8B00169461348FEF7AFFB144C20
:103BF000124804F1080120604FF00060606040202E
:103C000081E8210265614FF44030A561C4E90750A5
:103C100020466562FEF77EFA08B1FDF702FE746386
:103C2000A663B0E7001001403038024000000240B7
:103C30000048004000040240000802405860024072
:103C4000386701202DE9F843044690F83D001F46EF
:103C500016460D4620284CD1C5B1BEB194F83C00A3
:103C6000012846D0012084F83C004FF00008C4F839
:103C70004080212084F83D00FEF772FCA684814636
:103C8000E684A068B0F5805F03D004E00120BDE8C1
:103C9000F883206928B12E465FF0000584F83C8047
:103CA0000EE00026FAE78021204600F07FFEA0B952
:103CB000AEB116F8010B21684860E08C401EE0842C
:103CC000E08C4B464FF0000200970028EBD14FF0FC
:103CD0004001204600F06AFE30B10320D7E735F8F6
:103CE000020BC0F30800E6E7202084F83D00002026
:103CF000CDE70220CBE7FEE77FB50024164800940D
:103D0000019402941349039401604FF48031C0E997
:103D100001140461047680F820400903C162012582
:103D2000C5614FF0C061C460816280F83050456168
:103D3000FDF730FF08B1FDF774FD0220CDE9000565
:103D4000694602940448FDF7E5FD002801D0FDF71F
:103D500068FD7FBD00200140186201201CB50024D1
:103D6000124900941048019408600846FEF797F83D
:103D700008B1FDF756FD1C200090022001900022A2
:103D800069460A48FEF733F808B1FDF74AFD00948A
:103D90001022694605480194FEF729F8002801D051
:103DA000FDF73FFD1CBD000000740040C062012013
:103DB0001D4808B5016841F480010160016801F403
:103DC00080010091016841F4001101600068002247
:103DD00000F40010009011460E20FEF727FD0E2083
:103DE000FEF716FD002211460F20FEF71FFD0F20E3
:103DF000FEF70EFD002211461020FEF717FD1020E1
:103E0000FEF706FD002211463820FEF70FFD382090
:103E1000FEF7FEFC002211463B20FEF707FDBDE841
:103E200008403B20FEF7F4BC3038024010B58EB09D
:103E30001C216846FCF7FEF91C2107A8FCF7FAF9DB
:103E40001A484FF0204110220160194941600621B3
:103E500081600021C160C0E904128161C161130267
:103E60000162C0E909139302C0E90B134163816346
:103E700041640F203C230090CDE9010303AC1123E2
:103E800084E80E0009240691CDE907400AA80994A8
:103E900080E80E000D9107AA69460448FFF7A8F8CC
:103EA000002801D0FDF7BDFC0EB010BD3463012029
:103EB000040100A02DE9F04387B014216846FCF707
:103EC000B9F93D480024016841F010010160016822
:103ED00001F010010591016841F0040101600168E1
:103EE00001F004010591016841F0200101600168C1
:103EF00001F020010591016841F080010160016835
:103F000001F080010591016841F001010160016843
:103F100001F001010591016841F0020101600168B1
:103F200001F002010591016841F00801016001689A
:103F300001F008010591016841F04001016000684D
:103F4000DFF8788000F040004FF4C0660590002252
:103F500031464046FEF7FFFADFF864904FF4204701
:103F6000002239464846FEF7F6FA102000904FF43A
:103F700004100125CDE9010569461248FEF7E6F96E
:103F80000096CDE90154694640460394FEF7DEF9F8
:103F90000097CDE90154694648460394FEF7D6F9E7
:103FA000002211460A20FEF741FC0A20FEF730FCF1
:103FB00007B0BDE8F0830000303802400014024032
:103FC00000040240001002400D4810B50B4901608A
:103FD0000C49416000214FF480428160C0E9031226
:103FE00041618161C1610162FEF7C0FA002803D01E
:103FF000BDE81040FDF715BC10BD000000540040A6
:1040000084630120A08601000F4810B50D490160AE
:104010004FF48271416000218160C1604FF40072F1
:104020000161C0E90512C1610162416281620A2138
:10403000C162FEF7CFFE002803D0BDE81040FDF7B7
:10404000F0BB10BD00300140D86301200F4810B50F
:104050000D4901604FF48271416000218160C160AF
:104060004FF400720161C0E90512C1610162416251
:1040700081620A21C162FEF7ADFE002803D0BDE8CF
:104080001040FDF7CEBB10BD003800403064012069
:1040900010B58EB000240794089409940A940B94E8
:1040A0001C2168460C94FCF7C5F81E484FF080416F
:1040B00001602821C0E901140321C0E90314802113
:1040C0008161FFF723F808B1FDF7ABFB4FF4805097
:1040D000079007A91348FFF76BF908B1FDF7A1FB9B
:1040E0001048FFF75DFC08B1FDF79BFB5020CDE9C0
:1040F0000B040BA90B48FEF7C1FF08B1FDF791FBBC
:10410000602000900120CDE90104042269460548A1
:104110000494FFF7DFFB002801D0FDF782FB0EB00F
:1041200010BD00004865012010B590B0002409942E
:104130000A940B94142104A80C94FCF77BF82C48E7
:104140000D940E9400940194029428490394016004
:104150005321C0E9011444F61F61C0E90314802112
:104160008161FEF7D3FF08B1FDF75BFB4FF4805090
:10417000099009A91E48FFF71BF908B1FDF751FB8B
:104180001B48FFF73EFA08B1FDF74BFB04200490F3
:104190005020CDE9050404A915480894FFF76BFCED
:1041A00008B1FDF73EFB0D940DA911480E94FEF7E2
:1041B00065FF08B1FDF735FB0120CDE90040029411
:1041C000002269460A480394FFF78CF908B1FDF70D
:1041D00028FB02200090042269460548FFF782F977
:1041E000002801D0FDF71DFB10B010BD00040040F9
:1041F0009065012010B586B0002417480094019402
:104200000294039404941349059401605221C0E977
:10421000011440F2E731C0E9031480218161FEF707
:1042200075FF08B1FDF7FDFA4FF480500090694624
:104230000948FFF7BDF808B1FDF7F3FA049404A9A3
:1042400005480594FEF71AFF002801D0FDF7E9FAAA
:1042500006B010BD00080040D865012010B586B03A
:104260000024174800940194029403940494134981
:104270000594C0E900145321C0E902418021046182
:104280008161FEF743FF08B1FDF7CBFA4FF4805090
:10429000009069460A48FFF78BF808B1FDF7C1FAAC
:1042A0002020CDE9040404A90548FEF7E7FE002814
:1042B00001D0FDF7B6FA06B010BD0000000C0040BA
:1042C000206601201CB500240E4800940C4901947E
:1042D0000160C721C0E9011440F65F118461C1602B
:1042E000FEF714FF08B1FDF79CFA009469460548F3
:1042F0000194FEF7C3FE002801D0FDF792FA1CBD21
:1043000000100040686601200C4810B50A490160A1
:104310004FF4E1314160002181600C22C160C0E9AD
:1043200004128161C161FFF7D2FB002803D0BDE810
:104330001040FDF776BA10BD00100140B0660120B4
:104340000C4810B50A4901604FF4E1314160002189
:1043500081600C22C160C0E904128161C161FFF774
:10436000B6FB002803D0BDE81040FDF75ABA10BDD7
:1043700000480040F4660120FEE7FEE70448C188DB
:10438000491C89B2C1800A2901D10021C18070472E
:10439000F40000207047704703494FF6E070086052
:1043A00040F2CF1001F07AB900000020FEF7D6B934
:1043B00030B593B030216846FBF73CFF14210CA8C0
:1043C000FBF738FF1D480025016841F0805101606E
:1043D000006800F0805011901948016841F4804154
:1043E00001600068022400F48040119001200390D5
:1043F00010200490009406940820CDE90750A820CE
:10440000CDE9090404200B906846FEF72DFB08B1A6
:1044100072B6FEE70CA90F2081E831004FF4A050DE
:104420000F904FF48050109005210CA8FEF730FA41
:10443000002801D072B6FEE713B030BD403802400C
:10444000007000400248016841F47001016070474B
:1044500088ED00E00148FFF789B900009065012070
:104460000148FFF783B90000D865012010B5044862
:10447000FDF7E1FCBDE810400248FFF777B9000006
:10448000C062012068660120F0B50268254C264D07
:10449000264E274F274B4FF0804CA04209D0604555
:1044A00007D0A84205D0B04203D0B84201D098420C
:1044B00004D122F0700E4A6842EA0E02A0421BD0DC
:1044C000604519D0A84217D0B04215D0B84213D0D9
:1044D000984211D0184DA8420ED0184DA8420BD0CA
:1044E000174DA84208D0174DA84205D0164DA84236
:1044F00002D0164DA84203D122F44075CA682A435F
:104500004D6922F080022A4302608A68C2620A680A
:104510008262A04201D0984201D109690163012160
:104520004161F0BD0000014000040040000800406F
:10453000000C0040000401400040014000440140E4
:104540000048014000180040001C004000200040CE
:1045500010B501F01F030121046A99408C430462E5
:10456000016A9A401143016210BD10B5846842EAA5
:10457000032224F47F440A432243826010BD8268F0
:1045800022F070020A4342F0070181607047000088
:10459000F0B5026A22F001020262036A426884698D
:1045A000124E24F073050C682C4323F002058B682F
:1045B0002B430D4DA84201D0B04205D123F008078E
:1045C000CB683B4323F00403A84201D0B04205D19D
:1045D0004D6922F4407215438A692A43426084611E
:1045E000496841630362F0BD0000014000040140DE
:1045F000F0B5026A22F010020262026A436884691E
:104600000D6824F4E64444EA05248D6822F0200273
:1046100042EA05120F4D104EA84201D0B04206D119
:10462000CF6822F0800242EA071222F04002A8423C
:1046300001D0B04207D14D6923F4406343EA8503BA
:104640008D6943EA8503436084614968816302623E
:10465000F0BD00000000014000040140F0B5026A16
:1046600022F480720262026A4368C46922F4007212
:1046700024F073050C68124E2C438D6842EA052223
:104680000E4DA84201D0B04206D1CF6822F400629C
:1046900042EA072222F48062A84201D0B04207D148
:1046A0004D6923F4405343EA05138D6943EA05132A
:1046B0004360C4614968C1630262F0BD000001400B
:1046C0000004014030B5026A22F480520262046A9A
:1046D0004268C3690D6823F4E64343EA05238D6805
:1046E00024F4005444EA0534084DA84202D0084D91
:1046F000A84204D14D6922F4804242EA8512426008
:10470000C36149680164046230BD000000000140DB
:104710000004014070B5036800249A6822F0700517
:104720004A682A4322F007050A682A439A604A68C1
:1047300012F00F0F31D11211082A2ED2DFE802F049
:104740002E2E2E2E0B2127040B69D1E902210068A1
:10475000FFF70BFF22E00A68052A10D00268136AEF
:10476000156A25F00105156202689569096925F049
:10477000F00545EA01119161006803620EE0012035
:1047800070BD0A698968006800F00AF806E00A69E5
:104790008968006800F056F800E00124204670BDEA
:1047A00010B5036A046A24F001040462846924F0E9
:1047B000F00444EA021423F00A020A43846102620C
:1047C00010BD000070B5046A24F00104046284691D
:1047D000056A154EB04214D0B0F1804F11D0134E7F
:1047E000B0420ED0124EB0420BD0124EB04208D0A2
:1047F000114EB04205D0114EB04202D0104EB04220
:1048000003D124F00304144301E044F001041A0727
:1048100024F0F00444EA126225F00A0301F00A01D0
:1048200019438261016270BD000001400004004034
:1048300000080040000C004000040140004001401E
:104840000018004010B5036A23F010030362836967
:10485000046A23F4704343EA023224F0A00343EADB
:1048600001118261016210BD30B5046A24F01004A8
:1048700004628469056A24F4407444EA022222F442
:1048800070444FF6FF7202EA03322243A02425F05F
:10489000A00304EA011119438261016230BD0000E6
:1048A00070B5044600680169E26821F44051114383
:1048B00001612169A068E269084361691143084305
:1048C0002168CA6849F20C639A430243CA602068AF
:1048D0004169A26921F44071114341613149206865
:1048E000884202D03049884202D1FEF77BF801E0CD
:1048F000FEF768F8E2690023192164253226B2F533
:10490000004F626828D0A0FB0101930F9200FBF7D3
:1049100059FC0146B0FBF5F06FF01802504301EB73
:10492000800006EB0010B0FBF5F000F0F002B1FBE8
:10493000F5F002EB0012B1FBF5F06FF018035843ED
:1049400001EB800006EB0010B0FBF5F000F00F006B
:1049500021681044886070BDA0FB010192185B4182
:10496000FBF730FC0146B0FBF5F00201B1FBF5F0BE
:104970006FF01803584301EB800006EBC000B0FB5A
:10498000F5F000F0F80002EB4002B1FBF5F05843FF
:1049900001EB800006EBC000B0FBF5F000F0070073
:1049A000D6E7000000100140001401402DE9F0415D
:1049B000984617460E460446069D27E0681C25D0FB
:1049C0002DB1FDF7CDFDA0EB0800A8421ED920684F
:1049D0000C3050E8001F21F4D07140E80012002A8A
:1049E000F5D12068143050E8001F21F0010140E8A3
:1049F0000012002AF5D1202084F83D0084F83E0002
:104A0000002084F83C000320BDE8F08120680068A5
:104A100036EA000004D00020B842CFD00020F3E7EF
:104A20000120F9E7FEE700000FB4054B10B503A91C
:104A3000044A029800F09CF810BC5DF814FB0000DA
:104A4000855600082C0100200FB4084B10B504A9AE
:104A500002AA039800F08CF8044602A9002000F096
:104A6000B2FA204610BC5DF814FB0000C74F0008E6
:104A70000907090E002804DB00F1E02080F800148B
:104A8000704700F00F0000F1E02080F8141D70471F
:104A900000B52DED048BB0EE409AF0EE609A83B035
:104AA00051EC190BFBF7BAFD41EC180B18EE100A8C
:104AB00018EE901A8DED008B002818BF01200843D6
:104AC00020F00040C0F17F6000F1E040C00F14D042
:104AD00019EE101A19EE900A8DED009B002918BFEF
:104AE0000121084320F00040C0F17F6000F1E04068
:104AF000C00F04BF012000F035F8B0EE480A03B043
:104B0000F0EE680ABDEC048B00BD10B52DED028BF4
:104B1000B1EEC08A18EE100A20F00040C0F1FF404C
:104B2000C00F0AD010EE100A20F00040C0F1FF4084
:104B3000C00F04BF012000F015F8B0EE480ABDEC2C
:104B4000028B10BD02E008C8121F08C1002AFAD16A
:104B500070477047002001E001C1121F002AFBD1FD
:104B600070470000014908607047000030010020D4
:104B70002DE9FF4F8DB00F460546002606E025289B
:104B80000BD0DDE90F1290476D1C761C28780028A9
:104B9000F5D111B03046BDE8F08F0024A246A14601
:104BA0000122E94900E0044315F8013F203B02FAE5
:104BB00003F00842F7D128782A2810D06FF02F028E
:104BC0002878A0F13001092914D80AEB8A0102EBF8
:104BD000410144F0020400EB010A6D1CF0E701CF33
:104BE0005FEA000A03D544F40054CAF1000A44F015
:104BF00002046D1C28782E2817D115F8010F44F0F7
:104C000004042A280ED06FF02F022878A0F130017A
:104C100009290AD809EB890102EB410100EB0109DE
:104C20006D1CF2E757F8049B6D1C28786C280FD098
:104C300006DC4C2817D068280DD06A2814D104E06F
:104C4000742810D07A280FD10DE044F400140AE043
:104C500044F4801401E044F440146978814202D1A4
:104C600004F580146D1C6D1C28786E281ED00CDC99
:104C7000632830D004DC00288BD0582811D19FE065
:104C8000642867D069280CD164E073282DD004DC37
:104C90006F2872D0702804D194E075286ED07828DF
:104CA0006DD0DDE90F129047761C4BE1C4F3025042
:104CB000022806D0032809D0042801CF09D00660B5
:104CC00040E101CFF117C0E900613BE101CF06806F
:104CD00038E1067036E117F8040B8DF8000000206B
:104CE0008DF80100EB46012003E057F804BB4FF0BC
:104CF000FF3061074FF0000102D40DE008F101011F
:104D0000884649450FDA8045F8DB1BF80810002972
:104D1000F4D108E008F1010188468142FADB1BF872
:104D200008100029F6D1DDE90F23AAEB080081461F
:104D3000214600F031F9304400EB080604E0DDE9DB
:104D40000F121BF8010B9047B8F10108F7D221466A
:104D50004846F2E00A21C4F302524FF0000B0891DA
:104D6000022A04D001CFC117032A09D00AE0FF1D8F
:104D700027F00707F7E8020108E02CE01EE01FE03B
:104D800000B2C117042A01D140B2C117021E71F14D
:104D9000000206DA0023D0EB030063EB01012D22B1
:104DA00002E0220504D52B228DF82420012203E005
:104DB000E20701D02022F7E7904653E00A210BE0FA
:104DC000102109E010214FF0000B44F004044FF0D3
:104DD0000809089103E008214FF0000B0891C4F383
:104DE0000252022A04D001CF0021032A06D006E095
:104DF000FF1D27F00707F7E8020103E080B2042A4D
:104E000000D1C0B24FF0000822072BD52A78702AB3
:104E100007D0DDF820C08CF0100C5CEA0B0C05D03C
:104E20000EE040228DF82420012208E050EA010320
:104E300006D030238DF824308DF8252002229046AC
:104E4000089B83F0080353EA0B030BD150EA0102DD
:104E500001D1620706D530228DF824204FF00108D9
:104E6000A9F101092A78582A04D038A20B9208AA7D
:104E70000A920BE03AA2F9E75B46089AFBF7A2F91F
:104E80000B9B9B5C0A9A521E0A92137050EA010215
:104E9000F2D10A98ADEB000000F1200B600702D5BB
:104EA00024F4803401E04FF00109D94502DDA9EB7B
:104EB0000B0000E0002000EB0B0141440890AAEB3E
:104EC000010AE00306D4DDE90F232146504600F035
:104ED00063F806444FF0000908E009A911F8090039
:104EE000DDE90F12904709F10109761CC145F4DB99
:104EF000E0030CD5DDE90F232146504600F04CF8C5
:104F0000064404E0DDE90F1230209047761C089932
:104F1000481E08900029F5DC08E00A980A990078F4
:104F2000491C0A91DDE90F129047761CBBF1000184
:104F3000ABF1010BF1DC21465046DDE90F2300F017
:104F400019F806446D1C21E609280100303132337E
:104F500034353637383961626364656600000000B5
:104F6000303132333435363738394142434445469F
:104F7000000000002DE9F041044600251E461746BA
:104F8000880404D405E039462020B0476D1C641E17
:104F9000F9D52846BDE8F0812DE9F0410446002509
:104FA0001E469046C80301D5302700E0202788041C
:104FB00004D505E041463846B0476D1C641EF9D55E
:104FC0002846BDE8F0810A68531C0B6010707047DA
:104FD00030B580B179B1002A0DDB93420BDB06E0DE
:104FE000845C8D5CAC4206D12CB125B1521C9A4236
:104FF000F6DD012030BD002030BD30B5002811D0D5
:1050000000290FD0002A0DDB93420BDB002405E0C2
:105010008D5C05558D5C641C15B1521C9A42F7DD00
:105020000021015530BD000070B5214C2DED028BE3
:10503000A06808B1401E37E01E4B1F499FED1F8A34
:1050400000204FF4805500BF03EB800292ED000A70
:1050500001EBC002401C82ED000A82ED018AA842E9
:10506000F2DB0123002214491548FBF77BFB2A469B
:1050700014491148FBF7B0FE0120124920806080DE
:1050800091ED000ADFED100A5FF0000020EE200A2B
:1050900084ED010A01EB8002401C82ED008A322877
:1050A000F8DB00F04BF81920A060BDEC028B70BD5E
:1050B0001000002018220120944100200000000070
:1050C00034D8000894C1002000008039DFED180AB0
:1050D000811E10B5C01CB0EE600A002900DC012161
:1050E000B0F5006F01DB40F2FF700A46114B06E09D
:1050F00003EB8204521C94ED001A71EE200A8242E6
:10510000F6DD0D4A12680FE003EB810494ED001AFE
:1051100001FB02F4240BC1EE201A01EE104A491CD7
:10512000B8EE411A01EE210A8142EDDD10BD00000A
:105130000000000094C100200C0100202DE9F05F68
:105140002DED028BADF5014D48F20C066E44282181
:105150003046FBF76FF80027F84C44F210000121AD
:1051600040F2FF72684405AD04EB810393ED000A41
:1051700000EB810303ED010A05EB810343F8041CF6
:10518000491C9142F0DBA84640F2FE7300224146E2
:10519000824603F075FB00244FF0FF3BBFEE008A10
:1051A00056F82400401C2DD0651C29E058F8241026
:1051B00058F82500081A00D5404214281FDA0AEBD7
:1051C0008501009191ED000A0AEB840920EE000AA6
:1051D000D9ED000A00EEA00A10EE100AFBF73CF928
:1051E00041EC100BFFF754FC51EC100BFBF747F9A7
:1051F000C9F8000046F825B0009981ED008A6D1CC1
:105200000A2DD3DB641C0A2CCADBDFF8349300249C
:105210004FEA080535F8240080B2FFF757FF10EE7B
:10522000100A484506DA0AEB840080ED008A46F849
:1052300027B010E056F82400401C0CD055F824008C
:1052400045F827000AEB84010AEB870091ED000A7C
:105250007F1C80ED000A641C0A2CDBDB0A23002281
:105260002946504603F00CFB059880B2FFF72EFF4D
:105270000698B0EE402A80B2FFF728FF0DF5804077
:10528000B04BD0ED040AD0ED051AAF4C012130EE41
:10529000E11A002004F11005B0EEC11A11EE102A37
:1052A0009A4213DDB4EEC02A10EE903AF1EE10FAF5
:1052B000A64A06D2934202DDA060A96012E0A8606F
:1052C0000FE09342FBDCA160A8600BE070EEA10A46
:1052D0009F4B10EE902A9A4202DDA860A06001E088
:1052E000A960A160B4EEC02AF1EE10FA04D284EDF8
:1052F000002A85ED000A03E085ED002A84ED000A0E
:1053000011EE102A934B9A4216DD059A02EB4203E6
:105310008A4A52F82320904B9A4202DDA160A9608C
:1053200006E08E4B9A4201DDA16000E0A060A8601B
:1053300084ED002A85ED002A94ED001A44F62062DF
:10534000874EBDEEC10A874F134684ED010A95EDE5
:10535000000A41F2883CFDEEC00AC5ED010A00BF1B
:1053600000EE903AF8EEE00A71EE600AF0EEE00A24
:1053700010EE908AB04501DC636002E06344BB42FA
:10538000EEDDE14600EE902AF8EEE00A70EE600AEB
:10539000F0EEE00A10EE903AB34201DC6A6002E0FF
:1053A0004A44BA42EEDD704FA268DFF89CB1FB6858
:1053B000ABF1640B1344FB60AA683E6932443A6166
:1053C0007E69761C7E61022E7BD17861012B01DD26
:1053D000E16000E0E060F860012A01DDE96000E0E2
:1053E000E8603861584861A16438E268FFF72CFB37
:1053F0004FF6FF7A4FF02008CDF80080CDE901BAD2
:1054000056461023C8220A21002003F0F7F84E4820
:1054100059A16438EA68FFF717FBCDF80080CDE9A1
:1054200001B61023FA223221002003F0E7F84E4E95
:1054300040201C363070534801680A20012946D0AC
:10544000E968E9B362217170E168D9B36221317111
:105450006A68494692FBF1F31B1F93FBF0F392FB42
:10546000F1F23033B370121F92FBF0F300FB132202
:105470003032F270626892FBF9F392FBF9F11B1F74
:1054800093FBF0F3091F91FBF0F200FB1210303395
:1054900073713030B0713CA2CDE90082FA22102342
:1054A000CDF808A04FF49671104603F0A7F823201A
:1054B0002D4907230022F0718031A1F1640002E040
:1054C00038E090E038E0FFF783FD78B36EE0E16804
:1054D00051B362217170E96849B362213171626828
:1054E000494692FBF1F31B1F93FBF0F392FBF1F2A1
:1054F0003033B370121F92FBF0F300FB13223032F3
:10550000F2706A6892FBF9F392FBF9F11B1F93FBAF
:10551000F0F3091F91FBF0F200FB121030337371AE
:105520003030B0711CA2B7E76121D3E73CE0FFE760
:105530006121D3E7612186E7612188E794C10020DA
:1055400000401C460000F041F801012000005243D9
:105550000000D2430000E1430000FA42000048424C
:1055600000401C45F049020010000020415F5459E2
:1055700050453A2531640000425F545950453A2560
:1055800031640000FC00002043757272656E746C1B
:10559000794F55543A42000043757272656E746CCF
:1055A000794F55543A4100000320B861264907233A
:1055B000002201F16400FFF720FDB869002812DD28
:1055C00030790DF10408F379B279717988E80F0028
:1055D000F0780090B378727831781CA0FFF724FA45
:1055E000B869401EB86160684FF47A7790FBF7F2B3
:1055F0001BA11F48FFF728FA2026CDE9006B4FF6C4
:10560000E0784FF496795C461023C8220A21484678
:10561000CDF8088002F0F2FF686816A190FBF7F25F
:105620001348FFF711FACDE900641023C822322194
:105630004846CDF8088002F0E1FF0DF5014DBDECC4
:10564000028BBDE8F09F00002C000020256325633D
:105650002563256325632563256325630A00000010
:10566000415F465245513A2533646B485A00000069
:1056700094010120425F465245513A2533646B48FC
:105680005A00000013B54FF6FF7301226946024825
:10569000FEF7D8FA00981CBDB066012070B50A4923
:1056A0000646002408884D8821464543204602F0DE
:1056B000BDFE03F00FF84FF0D84002E0A0F8806084
:1056C000641CAC42FAD370BD840100202DE9F04F78
:1056D00038492C260A46887192884FF4305A4FF484
:1056E000285B41F6631E2B274FF02A0C4FF0F00881
:1056F00045F210594FF448754FF4A0744FF4F0730D
:1057000058B10C80A1F802804A4530D1A1F808A018
:10571000A1F80AB03802888141E0A1F800804C80ED
:105720004A4507D1A1F808A0A1F80AB04FF42C50BF
:10573000888105E072450E8105D14F81A1F80CC02A
:105740000B804D8002E0A1F80AC08F81A2F5A6402F
:10575000103803D0A2F5EE40963801D10C804B8072
:10576000A2F5184006381FD10B804D801CE0724511
:1057700011D0A2F5184006380DD00E81A1F80AC04C
:10578000A1F80C70A2F5A64010380BD0A2F5EE409F
:10579000963807D008E00E81A1F80AC08F810D80ED
:1057A0004B80EFE70B804C80BDE8F04F002002F00B
:1057B0007BBD00008401002010B5144602F036FEC7
:1057C00002F088FF4FF0D840A0F8804010BD10B51F
:1057D000CF2002F073FF002002F064FFC12002F02E
:1057E00061FF302002F05EFFED2002F067FF6420D1
:1057F00002F058FF032002F055FF122002F052FF82
:10580000812002F04FFFE82002F058FF852002F0CF
:1058100049FF102002F046FF7A2002F043FFCB2020
:1058200002F04CFF392002F03DFF2C2002F03AFF3D
:10583000002002F037FF342002F034FF022002F093
:1058400031FFF72002F03AFF202002F02BFFEA2080
:1058500002F034FF002002F025FF002002F022FFBA
:10586000C02002F02BFF1B2002F01CFFC12002F021
:1058700025FF012002F016FFC52002F01FFF302097
:1058800002F010FF302002F00DFFC72002F016FFDB
:10589000B72002F007FF362002F010FF482002F088
:1058A00001FF3A2002F00AFF552002F0FBFEB12072
:1058B00002F004FF002002F0F5FE1A2002F0F2FED2
:1058C000B62002F0FBFE0A2002F0ECFEA22002F05D
:1058D000E9FEF22002F0F2FE002002F0E3FE2620B4
:1058E00002F0ECFE012002F0DDFEE02002F0E6FE18
:1058F0000F2002F0D7FE2A2002F0D4FE282002F06A
:10590000D1FE082002F0CEFE0E2002F0CBFE0820D1
:1059100002F0C8FE542002F0C5FEA92002F0C2FE2B
:10592000432002F0BFFE0A2002F0BCFE0F2002F06E
:10593000B9FE002002F0B6FE002002F0B3FE002007
:1059400002F0B0FE002002F0ADFEE12002F0B6FE53
:10595000002002F0A7FE152002F0A4FE172002F09E
:10596000A1FE072002F09EFE112002F09BFE062001
:1059700002F098FE2B2002F095FE562002F092FED7
:105980003C2002F08FFE052002F08CFE102002F079
:1059900089FE0F2002F086FE3F2002F083FE3F20AA
:1059A00002F080FE0F2002F07DFE2B2002F086FE2A
:1059B000002002F077FE002002F074FE012002F0C9
:1059C00071FE3F2002F06EFE2A2002F077FE0020DA
:1059D00002F068FE002002F065FE002002F062FE88
:1059E000EF2002F05FFE112002F068FE7820FCF745
:1059F00033FCBDE81040292002F060BE10B5FF2046
:105A000002F05CFEFF2002F04DFE982002F04AFEFC
:105A1000062002F047FEBC2002F050FE012002F0FA
:105A200041FE0F2002F03EFE612002F03BFEFF200F
:105A300002F038FE012002F035FE012002F032FEB5
:105A40000B2002F02FFE102002F02CFE372002F077
:105A500029FE632002F026FEFF2002F023FEFF2035
:105A600002F020FE012002F01DFE012002F01AFECD
:105A7000002002F017FE002002F014FEFF2002F0CA
:105A800011FE522002F00EFE012002F00BFE00205B
:105A900002F008FE402002F005FEBD2002F00EFEDE
:105AA000012002F0FFFD232002F0FCFD452002F062
:105AB000F9FD672002F0F6FD012002F0F3FD23203E
:105AC00002F0F0FD452002F0EDFD672002F0EAFD56
:105AD000BE2002F0F3FD002002F0E4FD012002F000
