:020000040800F2
:10000000B0C40020A101000849490008D1410008FE
:100010004549000865110008C555000800000000AA
:10002000000000000000000000000000734A00080B
:10003000AB12000800000000714A0008A54A000841
:10004000BB010008BB010008BB010008BB010008A0
:10005000BB010008BB010008BB010008BB01000890
:10006000BB010008BB010008BB010008BB01000880
:10007000BB010008BB010008BB010008BB01000870
:1000800069110008BB010008D50B0008BB0100087E
:10009000BB010008BB010008BB010008BB01000850
:1000A000BB010008BB010008BB010008BB01000840
:1000B000BB010008794B0008894B0008BB01000810
:1000C000BB010008BB010008BB010008BB01000820
:1000D000BB010008BB010008BB010008B5550008C2
:1000E000BB010008BB010008BB010008BB01000800
:1000F000BB010008BB010008BB010008BB010008F0
:10010000BB010008BB010008BB010008BB010008DF
:10011000BB010008BB010008BB010008BB010008CF
:1001200079110008BB010008BB010008911100080B
:10013000BB010008BB010008BB010008BB010008AF
:10014000BB010008BB010008BB010008BB0100089F
:10015000BB010008BB010008BB010008BB0100088F
:10016000BB010008BB010008BB010008BB0100087F
:10017000BB010008BB010008BB0100080000000033
:10018000BB010008BB010008DFF810D000F050FBF5
:1001900000480047D1630008AFF30080B0C40020DE
:1001A0000648804706480047FEE7FEE7FEE7FEE711
:1001B000FEE7FEE7FEE7FEE7FEE7FEE7654B000829
:1001C000890100082DE9F05F0546002092469B4614
:1001D00088460646814640241BE02846414647465D
:1001E000224600F056FA53465A46C01A914110D39F
:1001F00011461846224600F03DFA2D1A67EB010819
:100200004F4622460120002100F034FA17EB000986
:100210004E41201EA4F10104DFDC484631462A4647
:100220004346BDE8F09FD2B201E000F8012B491E21
:10023000FBD270470022F6E710B513460A46044683
:100240001946FFF7F0FF204610BD034611F8012BB9
:1002500000F8012B002AF9D1184670472DE9FE4F0E
:10026000804681EA0300C00F0C46009021F0004157
:1002700023F00045B8EB0200A94105D240462146D3
:1002800090461C460B46024623F00040104347D0E0
:10029000270DC7F30A00C3F30A510290401A0190D8
:1002A00040286BDAC3F3130040F4801B0098924699
:1002B00020B10023D2EB030A63EB0B0B01985946E4
:1002C000C0F14002504600F0D5F906460D465046B2
:1002D0005946019A00F0EDF910EB08006141002445
:1002E00087EA115284EAE7731A4340D0009A62B356
:1002F000019A012A4FEA075215DC001B61EB02014B
:100300004FF0004202EA0752CDE90042001C41F5DD
:10031000801132462B4600F024FA03B0BDE8F08F7E
:1003200040462146F9E7001B61EB0201001C41F544
:10033000801300185B412018A2F5001747EB03015A
:1003400040EAD570B6196D4111E06D084FEA3606E6
:1003500045EAC0754FEA0752001B61EB0201001C21
:1003600041F5801149084FEA3000001951413246E9
:100370002B4603B0BDE8F04F00F0E4B9009801222D
:1003800040000023D0EB020263EBE07300982146AB
:100390004FEAE074B8EB000061EB0401E9E783F099
:1003A00000435BE781F0004158E72DE9FE4F81EA09
:1003B000030404F0004421F0004100944FF0000BCE
:1003C00023F0004350EA01045ED052EA03045BD0FC
:1003D000C3F30A54C1F30A552C44A4F2F334019434
:1003E000A0FB0254C1F3130141F48011C3F31303C2
:1003F00043F4801301FB024400FB034E840A970A76
:1004000044EA815447EA8357A4FB076802958D0AA2
:1004100005FB07854FEA932C04FB0C542705029D2E
:100420004FEA065847EA1637B5EB08056EEB070C9E
:10043000870E920E47EA811742EA8312A7FB020158
:10044000B6EB0B0164EB00042B0D43EA0C335E1892
:1004500044EB1C50DA465146E7FB0201C5F3130496
:100460004FEA0B3343EA14534FEA0432019C43EA48
:100470000603A4F10C040294009CCDE900B400F042
:1004800070F903B0BDE8F08F00200146F9E72DE9CF
:10049000F04D81EA030404F0004B21F000451446BE
:1004A0004FF0000A23F0004150EA050220D054EA40
:1004B00001021DD0C5F30A570246C5F31303C1F369
:1004C0001300C1F30A5640F4801543F48013A7EBE0
:1004D0000608101BD64608F2FD3873EB050002D360
:1004E00008F1010801E092185B41B8F1000F03DA4E
:1004F00000200146BDE8F08D00204FF48011064633
:1005000084460EE0171B73EB050705D3121B63EB44
:10051000050306434CEA010C49084FEA30009218E3
:100520005B4150EA0107EDD152EA030012D082EAA2
:10053000040083EA0501084305D0101BAB4106D235
:100540000122002306E000224FF0004302E06FF09A
:10055000010253101AEB06004CEB085110EB0A0095
:1005600041EB0B01BDE8F04D00F0ECB80EB540F2E8
:10057000334102910021CDE900110A460B4600F0FB
:10058000F0F803B000BDC1F30A5210B5C1F3130176
:1005900040F2FF3341F480119A4201DA002010BD8D
:1005A00040F233439A42A2F2334203DC524200F05B
:1005B00070F810BD904010BD00F0004230F00040D7
:1005C0000AD0C10D01F56071C0F3160042EA015175
:1005D000C2084007114370470020014670470000E1
:1005E00030B5041E71F1000404DB4FF000444042BA
:1005F00064EB0101141E73F1000405DB1C464FF08F
:100600000043524263EB0403994208BF904230BD5D
:1006100001F0004330B421F0004150EA010206D05D
:100620000A0DA2F56072C1F31301002A02DC30BC8E
:1006300000207047440F44EAC104C100E01830BCF8
:1006400000EBC25000F047B830B50B460146002021
:100650002022012409E021FA02F59D4205D303FA84
:1006600002F5491B04FA02F52844151EA2F1010205
:10067000F1DC30BD202A04DB203A00FA02F1002030
:1006800070479140C2F1200320FA03F319439040D0
:100690007047202A04DB203A21FA02F0002170473B
:1006A00021FA02F3D040C2F12002914008431946DA
:1006B0007047202A06DBCB17203A41FA02F043EAC2
:1006C000E07306E041FA02F3D040C2F1200291400B
:1006D0000843194670470029A8BF7047401C4900CD
:1006E00008BF20F00100704710B4B0FA80FC00FA97
:1006F0000CF050EA010404BF10BC704749B1CCF1C2
:10070000200421FA04F411FA0CF118BF012121434D
:100710000843A3EB0C01CB1D4FEA00614FEA102008
:1007200042BF002010BC704700EBC35010440029AA
:10073000A4BF10BC7047401C490008BF20F0010056
:1007400010BC704710B5141E73F1000408DA401C89
:1007500041F1000192185B411A4301D120F00100E0
:1007600010BD2DE9F04D92469B4611B1B1FA81F2D0
:1007700002E0B0FA80F220329046FFF77BFF044699
:100780000F4640EA0A0041EA0B0153465A46084325
:1007900013D0114653EA010019D0C8F14002504667
:1007A000FFF777FF05460E46504659464246FFF78B
:1007B00061FF084305D0012004E020463946BDE82A
:1007C000F08D0020054346EAE0762C4337430A9833
:1007D0006305E40AA0EB08000022FD0A44EA47543E
:1007E0000A3002D500200146E9E7010510196941E8
:1007F000DDE9084500196941BDE8F04DA2E7C1F304
:100800000A52C1F3130140F2FF3341F480119A42BE
:1008100002DA00200146704740F233439A42A2F2C6
:10082000334202DC5242FFF734BFFFF723BF000020
:10083000064C074D06E0E06840F0010394E807002D
:1008400098471034AC42F6D3FFF7A2FCA4950008F9
:10085000C495000870B58D1810F8014B14F0030210
:1008600001D110F8012B231106D110F8013B03E050
:1008700010F8016B01F8016B521EF9D1ABB110F801
:10088000012B04F00C048A1A0C2C03D0A2EB841266
:100890009B1C08E010F8014BA2EB0422F8E712F8C9
:1008A000014B01F8014B5B1EF9D5A942D4D30020BE
:1008B00070BD000010B501225102284801F01CFD56
:1008C00000224FF40071254801F016FD002220217E
:1008D000234801F011FD022004F076FE002404E01C
:1008E0002049085D04F070FE641C042CF8DB012232
:1008F00020211B4801F000FD0A2000F0D7FC002257
:100900002021174801F0F8FC032004F05DFE0024CC
:1009100004E01549085D04F057FE641C042CF8DB64
:10092000012220210E4801F0E7FC0A2000F0BEFC65
:10093000002240210A4801F0DFFC0A2000F0B6FC4A
:1009400001224021064801F0D7FC0A2000F0AEFC4D
:1009500000224021024801F0CFFC10BD00080240F7
:1009600000180240E0010020E40100201CB527A08F
:100970000068019026A000680090002220212548F0
:1009800001F0BAFC002004F01FFE002404E001A9DD
:10099000085D04F019FE641C042CF8DB0122202100
:1009A0001C4801F0A9FC0A2000F080FC0022202154
:1009B000184801F0A1FC012004F006FE002404E028
:1009C0001DF8040004F000FE641C042CF8DB012276
:1009D0002021104801F090FC0A2000F067FC002262
:1009E00040210C4801F088FC0A2000F05FFC012245
:1009F0004021084801F080FC0A2000F057FC00224A
:100A00004021044801F078FC1CBD000000400000BB
:100A100001400820001802402DE9FF5F2DED048BF6
:100A200007468B4692465846FFF7A0FD41EC190B4E
:100A30009FED380B53EC102BFFF7B7FC41EC180B74
:100A4000FFF7A1FD05460798FFF790FD41EC190B54
:100A50009FED320B53EC102BFFF7A7FC41EC180B6A
:100A6000FFF791FD8146D046082F15D2DFE807F049
:100A70000406080A0C0E10120E240EE00F240CE0DF
:100A800010240AE0112408E0122406E0132404E0F4
:100A9000142402E0152400E000BF00BF2149CD71FD
:100AA000280A8871280C4871280E087181F8039073
:100AB0004FEA1920887081F801804FEA18200870E9
:100AC00000222021184801F017FC204604F07CFD8C
:100AD000002604E01349885D04F076FD761C082E9C
:100AE000F8DB01222021104801F006FC0A2000F06A
:100AF000DDFB012240210C4801F0FEFB0A2000F042
:100B0000D5FB00224021084801F0F6FBBDEC048B28
:100B1000BDE8FF9F95D626E80B2E1140012FC11688
:100B20006CC16640D80100200018024070B505462F
:100B3000AC6B206C00F0500050BB206C40F4007097
:100B400020642068806800F04050E8B9207ED8B961
:100B50002068C06A00F4700020B12068806800F44A
:100B6000806088B92068406820F0200021684860D3
:100B7000206C20F480702064206C00F4805018B940
:100B8000206C40F001002064204600F01BFD0BE0CB
:100B9000206C00F0100018B1204600F015FD03E0B5
:100BA000A06BC16C2846884770BD70B50546AC6B1C
:100BB00040202064606C40F004006064204600F037
:100BC00003FD70BD70B50446A56B284600F0FBFC24
:100BD00070BD000010B5024800F0F7FC10BD000029
:100BE0008CBB002055494A6822F440324A604A686A
:100BF00043681A434A600268526822F480720368AC
:100C00005A6002685368026943EA022203685A6024
:100C10000268526822F0407203685A6002685268A3
:100C200083681A4303685A600268926822F400627B
:100C300003689A6002689268C3681A4303689A60FE
:100C40003F4B826A9A4218D00268926822F0706222
:100C500003689A6002689268836A1A4303689A601C
:100C60000268926822F0405203689A6002689268B3
:100C7000C36A1A4303689A600BE00268926822F024
:100C8000706203689A600268926822F040520368BA
:100C90009A600268926822F0020203689A60026811
:100CA0009368027E43EA420203689A602022125C43
:100CB000A2B10268526842F4006203685A60026896
:100CC000526822F4604203685A6002685368426ABC
:100CD000521E43EA423203685A6005E002685268D5
:100CE00022F4006203685A600268D26A22F4700239
:100CF0000368DA620268D36A828B521E43EA0252A8
:100D00000368DA620268926822F4007203689A60EB
:100D10000268936890F8302043EA422203689A60A0
:100D20000268926822F4806203689A60026893689D
:100D3000426943EA822203689A60704700230140B7
:100D40000100000F2DE9F041E548007840F27121E3
:100D500010FB01F0490101EBC007E248007849119E
:100D600010FB01F0490101EBC00800BF3D46DE4821
:100D700090ED000ADD4880ED000ADB4890ED000AA6
:100D8000DB4880ED000A00262AE0D74800EB860009
:100D900090ED000AD548D0ED000AB4EEE00AF1EE7D
:100DA00010FA07D2D04800EB860090ED000ACF4839
:100DB00080ED000ACC4800EB860090ED000ACC489C
:100DC000D0ED000AB4EEE00AF1EE10FA07DDC648F5
:100DD00000EB860090ED000AC54880ED000A761C05
:100DE000B6F5805FD1DBC24890ED000ABF48D0ED78
:100DF000000A30EE600ABF4880ED000A45F2082084
:100E000085420FDABC48D0ED000ABA4890ED001ACE
:100E100070EEC10AB0EE600A0121B84800F0DDFAB8
:100E2000044636E146F2905085420FDAB248D0EDE2
:100E3000000AB04890ED001A70EEC10AB0EE600AE8
:100E40000121AF4800F0C9FA044622E147F6181024
:100E500085420FDAA848D0ED000AA64890ED001AA6
:100E600070EEC10AB0EE600A0121A64800F0B5FAA2
:100E700004460EE148F6A04085420FDA9E48D0EDC8
:100E8000000A9C4890ED001A70EEC10AB0EE600AAC
:100E900001219D4800F0A1FA0446FAE04AF2280038
:100EA00085420FDA9448D0ED000A924890ED001A7E
:100EB00070EEC10AB0EE600A0121944800F08DFA8C
:100EC0000446E6E04BF2B03085420FDA8A48D0EDB6
:100ED000000A884890ED001A70EEC10AB0EE600A70
:100EE00001218B4800F079FA0446D2E04CF23870C8
:100EF00085420FDA8048D0ED000A7E4890ED001A56
:100F000070EEC10AB0EE600A0121824800F065FA75
:100F10000446BEE04DF6C02085420FDA7648D0ED9B
:100F2000000A744890ED001A70EEC10AB0EE600A33
:100F30000121794800F051FA0446AAE04EF64860D3
:100F400085420FDA6C48D0ED000A6A4890ED001A2D
:100F500070EEC10AB0EE600A0121704800F03DFA5F
:100F6000044696E06E4885420FDA6348D0ED000AE9
:100F7000604890ED001A70EEC10AB0EE600A0121DF
:100F8000684800F02AFA044683E0674885420FDA91
:100F90005948D0ED000A574890ED001A70EEC10A8A
:100FA000B0EE600A0121614800F017FA044670E0D3
:100FB0005F4885420FDA5048D0ED000A4D4890ED69
:100FC000001A70EEC10AB0EE600A0121594800F023
:100FD00004FA04465DE0584885420FDA4648D0EDF1
:100FE000000A444890ED001A70EEC10AB0EE600AA3
:100FF0000121524800F0F1F904464AE05048854288
:101000000FDA3D48D0ED000A3A4890ED001A70EE34
:10101000C10AB0EE600A01214A4800F0DEF9044638
:1010200037E0494885420FDA3348D0ED000A3148AD
:1010300090ED001A70EEC10AB0EE600A012143483B
:1010400000F0CBF9044624E0414885420FDA2A48F3
:10105000D0ED000A274890ED001A70EEC10AB0EEFC
:10106000600A01213B4800F0B8F9044611E03A4813
:1010700085420EDA2048D0ED000A1E4890ED001A95
:1010800070EEC10AB0EE600A0121344800F0A5F903
:10109000044633480068001B3149086005E03048C9
:1010A0000068A0F5B4702E4908602D480068B0F5BE
:1010B000B47FF4DA05E02A48006800F5B4702849E6
:1010C0000860274800680028F5DB254843F6FF72D2
:1010D000294603680020FFF79FFCBDE8F08100006F
:1010E000A5010020A70100206C7A00200C00002040
:1010F0001000002014000020200000202400002008
:10110000380000204C000020600000207400002007
:10111000880000209C000020B0000020C4000020B7
:10112000D0010100D800002058150100EC0000207B
:10113000E028010000010020683C010014010020AB
:10114000F04F010028010020786301003C010020DD
:101150000077010050010020888A0100640100200E
:101160001C00002000BFFEE710B5024800F06EFD35
:1011700010BD000048BC002010B5034800F066FD1B
:1011800001200249087010BDD4BB0020840100205A
:1011900010B5024800F05AFD10BD0000A4BD0020AB
:1011A0000146087810381823B0FBF3F20848805C39
:1011B000C865032A05D908686FF30900001D886512
:1011C00003E008686FF309008865886D70470000C8
:1011D00084950008014600208A6A8B69CBB932B138
:1011E000012A0DD0022A03D0032A10D10EE000BF3D
:1011F000CB6A03F08073B3F1807F00D1012007E058
:10120000CB6AB3F1C07F00D1012001E000E000BF54
:1012100034E08B69B3F5005F1AD132B1012A07D0EF
:10122000022A03D0032A11D10AE000BF01200EE0F8
:10123000CB6A03F08073B3F1807F00D1012006E018
:10124000CB6AB3F1C07F00D1012000E000BF15E000
:1012500032B1012A05D0022A04D0032A0CD103E0BE
:1012600000BF00BF012008E0CB6A03F08073B3F138
:10127000807F00D1012000E000BF00BF704730B583
:101280000468246824F4802405682C600468636082
:101290008468402C04D10468A2600468E16003E023
:1012A0000468A1600468E26030BD704700BF411E61
:1012B000081EFCD17047000040F2CF1003490860BF
:1012C0004FF6FF70024908607047000004000020DC
:1012D0000000002072B600BFFEE7000070B50446B3
:1012E000B3F5804F13D1D1E9000540EA05108D68B0
:1012F00040EA05208D6928438D8940EA054054F86D
:101300002250064E3540284344F8220003E06FF097
:10131000704044F82200002070BD00000000F0CFB3
:1013200070B50246086852F8200020F001000E68EF
:1013300042F826008868082801D1402300E00023F5
:10134000486818438E683043CE6830430E69304396
:101350004E693043CE6930430E6A30434E6A3043A3
:101360008E6A3043CE6A30430E6B40EA06048869C9
:101370000443C86B0443074D45F4806545F4E025FC
:10138000086852F82000A84320430E6842F826005F
:10139000002070BD7FFB080010B50346D1E90004B2
:1013A00040EA04108C6840EA04208C8940EA044436
:1013B000088A401E44EA0054087D801E44EA00600A
:1013C0008C692043541C53F8244004F040442043CB
:1013D000541C43F82400002010BD024600200129BF
:1013E00006D1D2ED030A70EE800AC2ED030A05E0D1
:1013F000D2ED030A70EEC00AC2ED030AD2ED010A73
:1014000092ED031A60EE810AB6EE001A60EE810AD0
:1014100092ED001A41EE000A92ED021AD2ED041A82
:1014200070EE611A41EE210AFDEEE00A10EE900A1C
:1014300082ED040A7047704738B5024600200090DC
:1014400000BF92F83C00012801D1022038BD0120E4
:1014500082F83C0000BF0868092816D91068C068E7
:101460000C780A3C04EB44050724AC40A043146804
:10147000E0600C780A3C04EB44048868A0401468DF
:10148000E46820431468E06013E0106800690C7899
:1014900004EB44050724AC40A043146820610C7899
:1014A00004EB44048868A04014682469204314684D
:1014B00020614868072817D21068406B0C79641EB9
:1014C00004EB84051F24AC40A043146860630888C3
:1014D00080B20C79641E04EB8404A0401468646B31
:1014E00020431468606331E048680D2817D2106803
:1014F000006B0C79E41F04EB84051F24AC40A0436F
:1015000014682063088880B20C79E41F04EB84041B
:10151000A0401468246B20431468206316E0106810
:10152000C06A0C790D3C04EB84051F24AC40A04339
:101530001468E062088880B20C790D3C04EB8404E6
:10154000A0401468E46A20431468E062194B1A4C06
:101550001068A04206D10868122803D1586840F4E8
:1015600080005860144C1068A0421CD108681028F4
:1015700002D00868112816D1586840F4000058605D
:10158000086810280FD10D4800680D4CB0FBF4F02E
:1015900000EB80004000009002E00098401E0090A8
:1015A00000980028F9D100BF002082F83C0000BF5D
:1015B00000BF4BE70023014000200140D401002080
:1015C00040420F007047704770472DE9F0410446D4
:1015D00000250026206807682068D0F8048007F0FE
:1015E000020508F0200695B38EB3206C00F01000C1
:1015F00018B9206C40F4007020642068806800F006
:101600004050E8B9207ED8B92068C06A00F4700064
:1016100020B12068806800F4806088B92068406844
:1016200020F0200021684860206C20F48070206445
:10163000206C00F4805018B9206C40F00100206448
:101640002046FFF7BFFF6FF012002168086007F027
:10165000040508F08006E5B3DEB3206C00F010004E
:1016600018B9206C40F4005020642068806800F4B1
:10167000401038BB2068806B00F4401020B1206817
:10168000806800F48060E8B92068406800F48060F9
:10169000C0B92068806800F0405098B9207E88B9B1
:1016A0002068406820F0800021684860206C20F4A9
:1016B00080502064206C00F4807018B9206C40F0D9
:1016C000010020642046FFF7B6FE6FF00C00216891
:1016D000086007F0010508F0400685B17EB120687A
:1016E000006800F0010050B1206C40F480302064AC
:1016F000204600F04FF86FF001002168086007F005
:10170000200508F080667DB176B1606C40F0020083
:1017100060646FF02000216808602046FFF754FFE6
:101720006FF0200021680860BDE8F08170B50446C4
:1017300000250CB9012070BD1549A06A884200D06F
:1017400000BF206C30B9204600F026F8002060640D
:1017500084F83C00206C00F0100088B9206C20F464
:10176000885040F0020020642046FFF73BFA00203A
:101770006064206C20F0020040F00100206400E072
:10178000012500BF002084F83C0000BF2846D2E7B6
:101790000100000F7047000010B586B00446142108
:1017A00001A8FEF747FD2D492068884254D100BFAB
:1017B000002000902A48006840F4807028490860A2
:1017C0000846006800F48070009000BF00BF00BFB2
:1017D0000020009022481438006840F001002049A1
:1017E000143908600846006800F00100009000BF4E
:1017F00000BF04200190032002900020039001A963
:10180000184800F07FFC184818490860002048601C
:10181000002116488160C1604FF480610161490078
:101820004161890081610021C1614FF44031016251
:101830000021416200F02AFB08B1FFF74BFD00BF19
:101840000A48A063846300BF00220221122000F036
:101850000FFF122000F0FCFE06B010BD002001407A
:10186000443802400000024010640240D4BB002013
:10187000F8B504460D4616460020009000BF94F8C7
:101880003C00012801D10220F8BD012084F83C0071
:1018900000BF2068806800F00100A0B9206880685F
:1018A00040F0010021688860554800685549B0FB48
:1018B000F1F000EB4000009002E00098401E009024
:1018C00000980028F9D12068806800F48070B0F595
:1018D000807F05D12068806820F48070216888604E
:1018E0002068806800F0010000287ED0206C40F263
:1018F0000161884340F4807020642068406800F4EF
:10190000806028B1206C20F4005040F480502064A6
:10191000206C00F48050B0F5805F04D1606C20F042
:101920000600606401E00020606400BF002084F8CD
:101930003C0000BF344F3548A16BC8633448A16BED
:1019400008643448A16BC8646FF022002168086005
:101950002068406840F080602168486020688068A6
:1019600040F4807021688860226802F14C0133469F
:101970002A46A06B00F000FB786800F01F0018BB3F
:1019800025492068884213D024492068884204D120
:10199000381D006800F01F0050B1214920688842BE
:1019A0002BD11948001D006800F01F00102824D218
:1019B0002068806800F04050F8B92068806840F0E6
:1019C00080402168886018E013492068884214D15B
:1019D0002068806800F0405078B92068806840F046
:1019E00080402168886008E0FFE7206C40F010002C
:1019F0002064606C40F001006064002044E7000057
:101A0000D401002040420F00002301402D0B0008AC
:101A1000C50B0008AB0B000800200140002101406D
:101A200000220140F0B5034600BF5879012801D1DA
:101A30000220F0BD0120587100BF02201871186803
:101A4000046802F0100640F6FE70B0408443D1E90D
:101A5000000640EA060502F0100005FA00F0044313
:101A6000186804601868006802F01007C026BE40BD
:101A7000B0431E6830600120187100BF002058710B
:101A800000BF00BFD5E710B504460CB9012010BD5A
:101A9000207920B900206071204600F009F802206A
:101AA000207100202061012020710020EFE700005C
:101AB00010B586B00446142101A8FEF7BBFB2949E6
:101AC000206888424BD100BF002000902648006863
:101AD00040F00050244908600846006800F00050BB
:101AE000009000BF00BF00BF002000901E481038CB
:101AF000006840F001001C49103908600846006881
:101B000000F00100009000BF00BF302001900320D2
:101B100002900020039001A9144800F0F3FA144841
:101B2000144908604FF060604860402111488160AE
:101B30000021C1604FF48061016149004161890069
:101B400081610021C1610162416200F09FF908B129
:101B5000FFF7C0FB00BF0748A060846300BF06B06A
:101B600010BD0000007400404038024000000240F8
:101B70008860024048BC002070B50446A56D00F0A6
:101B8000C1FB064694F83500022808D08020606525
:101B900000BF002084F8340000BF012070BD206821
:101BA000006820F01600216808602068406920F075
:101BB000800021684861206C08B9A06C28B12068B9
:101BC000006820F00800216808602068006820F0A4
:101BD00001002168086010E000F094FB801B0528DC
:101BE0000BD920206065032084F8350000BF002059
:101BF00084F8340000BF0320D0E72068006800F0BC
:101C000001000028E8D194F85C103F208840A860CB
:101C1000012084F8350000BF002084F8340000BFA4
:101C200000BFBBE7014691F83500022803D08020B1
:101C3000486501207047052081F835000868006874
:101C400020F001000A6810600020F3E7F8B50446B0
:101C5000002000908C4800684FF41651B0FBF1F75B
:101C6000A56D2E6894F85C1008208840304098B12B
:101C70002068006800F0040070B12068006820F05F
:101C800004002168086094F85C1008208840A8606F
:101C9000606D40F00100606594F85C1001208840A0
:101CA000304068B12068406900F0800040B194F88D
:101CB0005C1001208840A860606D40F00200606503
:101CC00094F85C1004208840304068B120680068B7
:101CD00000F0020040B194F85C1004208840A86035
:101CE000606D40F00400606594F85C10102088403E
:101CF000304078B32068006800F0080050B394F8D2
:101D00005C1010208840A8602068006800F48020E3
:101D100080B12068006800F4002028B9206CC8B1A8
:101D20002046216C884715E0A06C98B12046A16C34
:101D300088470FE02068006800F4807028B92068A8
:101D4000006820F0080021680860206C10B120466F
:101D5000216C884794F85C1020208840304000288F
:101D600065D02068006800F0100000285FD094F86B
:101D70005C1020208840A86094F83500052828D100
:101D80002068006820F0160021680860206840691B
:101D900020F0800021684861206C08B9A06C28B14F
:101DA0002068006820F008002168086094F85C1042
:101DB0003F208840A860012084F8350000BF002043
:101DC00084F8340000BF206D10B12046216D884793
:101DD000F8BD2068006800F4802080B120680068A9
:101DE00000F4002028B9606C10B12046616C88476F
:101DF0001DE0E06BD8B12046E16B884717E0206812
:101E0000006800F4807068B92068006820F0100055
:101E100021680860012084F8350000BF002084F8A4
:101E2000340000BFE06B10B12046E16B8847606D65
:101E300038B3606D00F00100F0B1052084F8350082
:101E40002068006820F001002168086000BF009849
:101E5000401C0090B84200D905E02068006800F0FE
:101E600001000028F3D100BF012084F8350000BF35
:101E7000002084F8340000BFE06C10B12046E16C13
:101E8000884700BFA4E70000D40100202DE9F041FD
:101E90000446002500F036FA074614B90120BDE8D3
:101EA000F081606A00B100BF022084F8350000BFF5
:101EB000002084F8340000BF2068006820F0010092
:101EC000216808600AE000F01DFAC01B052805D94A
:101ED00020206065032084F83500E0E72068006872
:101EE00000F001000028EED1206805682148054077
:101EF000D4E901010843E1680843216908436169A5
:101F00000843A1690843E1690843216A084305437E
:101F1000606A042803D1D4E90B0108430543206813
:101F200005602068456925F00705606A0543606A19
:101F300004280DD1A06A0543E06A48B12046FFF7A6
:101F400049F928B140206065012084F83500A6E7F2
:101F5000206845612046FFF723F9064694F85C1097
:101F60003F208840B06000206065012084F8350083
:101F7000002094E73F8010F02DE9F04704460D461D
:101F800016461F464FF00008D4F8589000BF94F84A
:101F90003400012802D10220BDE8F087012084F836
:101FA000340000BF94F83500012825D1022084F8C0
:101FB0003500002060653B46324629462046FFF743
:101FC0005EF994F85C103F208840C9F8080020684A
:101FD000006840F0160021680860206C28B1206875
:101FE000006840F00800216808602068006840F040
:101FF00001002168086006E000BF002084F834007A
:1020000000BF4FF002084046C6E7000070B5044626
:1020100000F078F906462546681C10B1044800789F
:10202000054400BF00F06EF9801BA842FAD370BDD2
:10203000D001002000B587B0142102A8FEF7FAF8FD
:102040002A48006808B107B000BD01202749086090
:1020500000BF002001902648006840F0010024499C
:1020600008600846006800F00100019000BF00BF52
:102070008814029002200390002004900320059011
:102080000C20069002A91B4800F03CF84FF6807027
:1020900002900220039000200490032005900C2061
:1020A000069002A9144800F02DF84CF2337002900B
:1020B0000220039000200490032005900C2006903D
:1020C00002A90E4800F01EF84FF480500290022042
:1020D000039000200490032005900C20069002A994
:1020E000074800F00FF800BFADE70000A80100208E
:1020F000383802400014024000100240000C024038
:1021000000180240F8B502460B46002500240020C6
:102110000021D6E0012606FA01F51E6806EA05044C
:10212000AC4274D11E7906F00306012E04D01E794C
:1021300006F00306022E13D190684F000326BE401E
:10214000B0434F00DE68BE403043906050680126C7
:102150008E40B0431E79C6F300168E403043506067
:102160001E7906F00306032E09D0D0684F0003261F
:10217000BE40B0434F009E68BE403043D0601E79E1
:1021800006F00306022E13D1CF0802F1200656F8FE
:1021900027004E07F70E0F26BE40B0434F07FF0E35
:1021A0001E69BE403043CF0802F1200646F82700E2
:1021B00010684F000326BE40B0431E7906F00306A8
:1021C0004F00BE40304310605E6806F44036002E7B
:1021D00076D000BF002600963C4E366846F4804616
:1021E0003A4F3E603E46366806F48046009600BF91
:1021F00000BF374E8F0856F827008E07370F0F267F
:10220000BE40B043334EB24202D1002624E057E034
:10221000314EB24201D101261EE0304EB24201D110
:10222000022619E02E4EB24201D1032614E02D4EB3
:10223000B24201D104260FE02B4EB24201D1052655
:102240000AE02A4EB24201D1062605E0284EB242EB
:1022500001D1072600E008268F073F0FBE4030431C
:102260001B4E8F0846F82700224E3068A0435E6858
:1022700006F4801606B120431E4E3060361D3068CD
:10228000A0435E6806F4001606B12043194E361DC1
:102290003060184E361F3068A0435E6806F4003682
:1022A00006B12043134E361F3060361F3068A043FE
:1022B0005E6806F4803606B120430E4E083E30605C
:1022C000491C1029FFF426AFF8BD00004438024035
:1022D00008380140000002400004024000080240AB
:1022E000000C02400010024000140240001802409E
:1022F000001C0240083C01400AB1816101E00B046E
:10230000836170470148006870470000C8010020E1
:1023100070B504460CB9012070BD94F83D0028B991
:10232000002084F83C00204600F0DAF8242084F8ED
:102330003D002068006820F00100216808602068E6
:10234000006840F40040216808602068006820F4BC
:1023500000402168086000F0A5FA05465C49606805
:10236000884206D85B48854201D2012007E0002060
:1023700005E05948854201D2012000E000200128F3
:1023800000D1C9E75548B5FBF0F62068406820F059
:102390003F003043216848604D496068884201D859
:1023A000701C07E04FF4967070434FF47A71B0FBE5
:1023B000F1F0401C2168096A21F03F0108432168BF
:1023C000086243496068884214D8681E6168490001
:1023D000B0FBF1F0401CC0F30B00042801D2042034
:1023E0003DE0681E61684900B0FBF1F0401CC0F39D
:1023F0000B0034E0A06838B9681E616801EB410148
:10240000B0FBF1F0401C0AE0681E616801EBC102FC
:1024100002EB0111B0FBF1F0401C40F48040C0F32E
:102420000B0008B901201AE0A06848B9681E61686D
:1024300001EB4101B0FBF1F0401CC0F30B000CE0DC
:10244000681E616801EBC10202EB0111B0FBF1F003
:10245000401CC0F30B0040F4804040F40040216871
:10246000C9694CF6FF72914308432168C861D4E9F9
:10247000070108432168096821F0C0010843216869
:102480000860D4E9031008432168896848F2FF32E4
:102490009143084321688860D4E905010843216815
:1024A000C96821F0FF0108432168C86020680068FE
:1024B00040F001002168086000202064202084F89A
:1024C0003D000020206384F83E0000BF24E70000A8
:1024D000A086010080841E0000093D0040420F00DC
:1024E00010B586B00446142101A8FDF7A3FE1B49D0
:1024F000206888422FD100BF002000901848006853
:1025000040F00200164908600846006800F002002A
:10251000009000BF00BFC020019012200290002058
:102520000390032004900420059001A90D48FFF7B3
:10253000E9FD00BF0020009009481030006840F419
:1025400000100749103108600846006800F40010C8
:10255000009000BF00BF06B010BD00000054004056
:1025600030380240000402400348006803490978FB
:102570000844014908607047C8010020D0010020CC
:1025800010B50D48006840F400700B49086008461B
:10259000006840F4806008600846006840F480707D
:1025A0000860032000F0A2F80F2000F007F800F008
:1025B0002BF8002010BD0000003C024070B504461E
:1025C0000E4800784FF47A71B1FBF0F00C490968BD
:1025D000B1FBF0F5284600F047FD08B1012070BDC1
:1025E000102C07D200222146501E00F041F8054869
:1025F000046001E00120F2E70020F0E7D0010020B4
:10260000D4010020CC01002008B500BF00200090BC
:102610000E48006840F480400C4908600846006895
:1026200000F48040009000BF00BF00BF0020009079
:10263000081F006840F08050091F086008460068C5
:1026400000F08050009000BF00BF08BD4438024039
:1026500001460846002809DB00F01F0301229A40CA
:1026600043099B0003F1E023C3F8002100BF70473A
:102670002DE9F05F80460D461646002702F0F6FF72
:10268000074639462A46334601F00700C0F1070ADB
:10269000BAF1040F02D94FF0040A01E0C0F1070AB1
:1026A000D14600F1040ABAF1070F02D24FF0000A36
:1026B00001E0A0F1030AD4464FF0010A0AFA09FA30
:1026C000AAF1010A0AEA020A0AFA0CFA4FF0010B0F
:1026D0000BFA0CFBABF1010B0BEA030B4AEA0B0400
:1026E0002146404602F0CAFFBDE8F09F00BF00F05F
:1026F0000702064B19684FF6FF031940044B0B43C2
:1027000043EA0221014B196000BF70470CED00E065
:102710000000FA0570B504460D460CB9012070BDE5
:102720005848006800F00700A84209D255490D70CA
:102730000846006800F00700A84201D00120EEE73B
:10274000207800F0020002281DD1207800F004005B
:10275000042805D14C48006840F4E0504A4908601C
:10276000207800F00800082805D14748006840F4A8
:102770006040454908604448006820F0F000A168C6
:10278000084341490860207800F00100A8B3606860
:10279000012807D13C4808380068C0F34040B8B968
:1027A0000120BCE76068022802D06068032807D1D6
:1027B000354808380068C0F3406048B90120AEE7EA
:1027C000314808380068C0F3400008B90120A6E786
:1027D0002D48006820F00300616808432A4908601A
:1027E000FFF790FD064609E0FFF78CFD801B41F2E4
:1027F0008831884202D9032091E707E02248006827
:1028000000F00C006168B0EB810FEDD11D4800684D
:1028100000F00700A84209D91A490D70084600685F
:1028200000F00700A84201D0012078E7207800F0EE
:102830000400042807D11448006820F4E050E1683F
:10284000084311490860207800F00800082808D1E2
:102850000D48006820F46040216940EAC1000A493F
:10286000086000F03FF808490968C1F30311074AFE
:10287000515CC8400649086006480068FFF79EFEA4
:1028800000204CE7003C0240083802408C950008CC
:10289000D4010020CC0100200148006870470000EE
:1028A000D401002000B5FFF7F7FF04490968C1F320
:1028B0008221034A515CC84000BD00000838024034
:1028C0009C95000800B5FFF7E7FF04490968C1F3CC
:1028D0004231034A515CC84000BD00000838024044
:1028E0009C9500082DE9F047002400250026A1460C
:1028F0002548006800F00C0020B1042805D0082805
:102900003AD105E0DFF8849039E0DFF8849036E0D2
:102910001D48001F006800F03F041B48001F0068AE
:1029200000F4800078B11A481749091F0968C1F3FB
:102930008811A0FB01700146224600233846FDF7AE
:1029400041FC05460EE011480F49091F0968C1F313
:102950008811A0FB01700146224600233846FDF78E
:1029600031FC05460848001F0068C0F30140401CC8
:102970004600B5FBF6F902E0DFF8109000BF00BF9B
:102980004846BDE8F0870000083802400024F40003
:1029900040787D01F8B504460CB90120F8BD2078D7
:1029A00000F00100002874D0F948006800F00C0025
:1029B00004280DD0F648006800F00C00082813D158
:1029C000F348001F006800F48000B0F5800F0BD1C1
:1029D000EF4808380068C0F34040002859D06068CC
:1029E000002856D10120D9E700BF6068B0F5803FCC
:1029F00008D1E7480838006840F48030E4490839D5
:102A000008601EE06068B0F5A02F0DD1E0480838DE
:102A1000006840F48020DE490839086008460068F4
:102A200040F4803008600CE0D9480838006820F491
:102A30008030D749083908600846006820F48020B3
:102A4000086000BF606890B1FFF75CFC054606E0D7
:102A5000FFF758FC401B642801D903209EE7CC48AF
:102A600008380068C0F340400028F1D011E0FFF7BB
:102A700049FC054606E0FFF745FC401B642801D9E8
:102A800003208BE7C24808380068C0F340400028A4
:102A9000F1D1207800F0020002285FD1BC48006824
:102AA00000F00C0058B1BA48006800F00C0008288B
:102AB0001CD1B748001F006800F48000B0B9B448CA
:102AC00008380068C0F3400020B1E068012801D058
:102AD000012063E7AE480838006820F0F80021695B
:102AE00040EAC100AA490839086037E0E06800B34D
:102AF0000120A8490860FFF705FC054606E0FFF73E
:102B000001FC401B022801D9032047E7A0480838F0
:102B10000068C0F340000028F1D09D4808380068E4
:102B200020F0F800216940EAC1009949083908609D
:102B300014E0002097490860FFF7E4FB054606E033
:102B4000FFF7E0FB401B022801D9032026E790484D
:102B500008380068C0F340000028F1D1207800F068
:102B6000080008282CD16069A8B101208A490860B2
:102B7000FFF7C8FB054606E0FFF7C4FB401B022831
:102B800001D903200AE782486C300068C0F3400096
:102B90000028F1D014E000207F490860FFF7B2FB65
:102BA000054606E0FFF7AEFB401B022801D90320D3
:102BB000F4E677486C300068C0F340000028F1D19B
:102BC000207800F00400042870D1002770483830C5
:102BD000006800F0805090B900BF002000906C4861
:102BE0003830006840F08050694938310860084644
:102BF000006800F08050009000BF00BF01276748C8
:102C0000006800F48070B0B96448006840F48070D7
:102C100062490860FFF776FB054606E0FFF772FBA6
:102C2000401B022801D90320B8E65C48006800F484
:102C300080700028F2D000BFA068012808D1544855
:102C40006830006840F001005149683108601DE0BB
:102C5000A06805280DD14E486830006840F0040097
:102C60004B49683108600846006840F00100086080
:102C70000CE047486830006820F0010044496831A2
:102C800008600846006820F00400086000BFA068E3
:102C9000A8B1FFF737FB054609E0FFF733FB401B00
:102CA00041F28831884202D9032077E626E038488D
:102CB00068300068C0F340000028EED013E0FFF752
:102CC00021FB054608E0FFF71DFB401B41F2883160
:102CD000884201D9032061E62D4868300068C0F3BE
:102CE00040000028EFD1012F07D129483830006873
:102CF00020F0805026493831086000BFA0690028C4
:102D000045D02348006800F00C0008285DD0A06979
:102D1000022845D100201F490866FFF7F3FA05464F
:102D200006E0FFF7EFFA401B022801D9032035E641
:102D3000174808380068C0F340600028F1D1D4E992
:102D400007010843616A40EA81110122A06AC2EBCF
:102D5000500041EA00412C20005D41EA00600C492E
:102D6000091F086001200B490866FFF7CBFA0546EA
:102D700006E0FFF7C7FA401B022801D903200DE641
:102D8000034808380068C0F340600028F1D049E0EB
:102D90000838024000004742800E47420070004061
:102DA000002021490866FFF7ADFA054606E0FFF767
:102DB000A9FA401B022801D90320EFE51B4800684F
:102DC000C0F340600028F2D12CE0A069012800D1B6
:102DD000E4E51648001D0668A069012820D006F425
:102DE0008001E06981421BD106F03F01206A8142E7
:102DF00016D147F6C0703040616AB0EB811F0FD129
:102E000006F440310122A06AC2EB5000B1EB004F42
:102E100006D106F070612C20005DB1EB006F01D08F
:102E20000120BBE50020B9E5000047420038024020
:102E300010B504460CB9012010BD606A38B960684D
:102E4000B0F5827F00D105E00021E16102E00021C0
:102E5000216161610021A16294F8510028B900202C
:102E600084F85000204600F047F8022084F8510012
:102E70002068006820F0400021680860A08800F405
:102E80008270218901F404410843A18901F40061A1
:102E90000843217C01F002010843217D01F001017A
:102EA0000843218B01F400710843217F01F03801B0
:102EB00008432021095D01F080010843218D01F4C0
:102EC00000510843216808600421A06901EA10400C
:102ED00094F8241001F0100108432168486020682C
:102EE000C06920F400602168C8610020606501208D
:102EF00084F8510000209FE710B586B004461421E5
:102F000001A8FDF797F93849206888426AD100BFC7
:102F1000002000903548006840F480503349086034
:102F20000846006800F48050009000BF00BF00BF5A
:102F3000002000902D481438006840F001002B4913
:102F4000143908600846006800F00100009000BFD6
:102F500000BF00BF002000900846006840F002005B
:102F600008600846006800F00200009000BF00BF43
:102F70008020019002200290002003900320049002
:102F80000520059001A91A48FFF7BCF80820019018
:102F90000220029000200390032004900520059059
:102FA00001A91448FFF7AEF81348144908604FF020
:102FB000C06048604021114881600021C1604FF429
:102FC00080610161002141618161C16101624162F1
:102FD000FEF75CFF08B1FEF77DF900BF0748A0646B
:102FE000846300BF06B010BD003001404438024089
:102FF000000002400004024058640240A4BD0020CA
:1030000070B504460E4615460CB9012070BD94F803
:10301000490028B9002084F84800204600F01FF835
:1030200004F108012068FEF77BF93146A2682068A8
:10303000FEF7B2F92946236BD4E90102FEF74EF9F7
:10304000A168206850F8210040F00100A2682168C2
:1030500041F82200012084F849000020D6E710B58D
:103060000446FEF7E7FF10BD70B504462546681E0E
:10307000B0F1807F01D301200FE0681E4FF0E02106
:1030800048610F214FF0FF3002F0F8FA00204FF0B6
:10309000E021886107200861002070BD70477047FB
:1030A00030B502460B4600BF92F83C00012801D122
:1030B000022030BD012082F83C0000BF022082F8CF
:1030C0003D00106844681068816824F07004186836
:1030D000044310684460184D1068A8421BD0106863
:1030E000B0F1804F17D0154D1068A84213D0144D81
:1030F0001068A8420FD0134D1068A8420BD0124D93
:103100001068A84207D0114D1068A84203D0104D96
:103110001068A84205D121F0800158680143106869
:103120008160012082F83D0000BF002082F83C0051
:1031300000BF00BFBDE700000000014000040040E8
:1031400000080040000C0040000401400040014025
:103150000018004010B504460CB9012010BD94F8C9
:103160003D0028B9002084F83C00204600F026F8F5
:10317000022084F83D00211D206801F00DFD012092
:1031800084F8460000BF84F83E0001213F2001552D
:10319000402001554120015500BF00BF012084F8A7
:1031A000420043200155442001554520015500BFF0
:1031B000012084F83D000020D0E7000010B586B063
:1031C0000446142101A8FDF735F82068B0F1804FBE
:1031D0000FD100BF002000904B48006840F0010074
:1031E000494908600846006800F00100009000BFEF
:1031F00088E046492068884253D100BF00200090F3
:103200004148006840F002003F49086008460068F5
:1032100000F00200009000BF00BF00BF002000903F
:1032200039481038006840F001003749103908600B
:103230000846006800F00100009000BF00BF00BF1A
:10324000002000900846006840F00400086008462E
:10325000006800F00400009000BF00BF4020019013
:10326000022002900020039004900220059001A902
:103270002748FEF747FF802001900220029000209F
:10328000039004900220059001A92248FEF73AFF1E
:10329000002211461D20FFF7EBF91D20FFF7D8F99A
:1032A00030E01D492068884218D100BF00200090FE
:1032B0001548006840F0040013490860084600689B
:1032C00000F00400009000BF00BF002211461E2045
:1032D000FFF7CEF91E20FFF7BBF913E00F49206876
:1032E00088420FD100BF002000900748006840F0DE
:1032F0000800054908600846006800F008000090D2
:1033000000BF00BF06B010BD4038024000040040BE
:10331000000002400008024000080040000C00408D
:10332000014691F83D00012801D00120704702209C
:1033300081F83D001A4B086898421BD00868B0F12C
:10334000804F17D0174B0868984213D0164B086867
:1033500098420FD0154B086898420BD0144B086860
:10336000984207D0134B0868984203D0124B086864
:1033700098420CD10868806800F00702062A0CD039
:103380000868006840F001000B68186005E00868F4
:10339000006840F001000B6818600020C6E70000DC
:1033A000000001400004004000080040000C004004
:1033B0000004014000400140001800402DE9F041A8
:1033C00004460D46002700BF94F83C00012802D1B6
:1033D0000220BDE8F081012084F83C0000BF0220FB
:1033E00084F83D002068866826F0770626F47F463C
:1033F000206886602868502833D00CDC202850D004
:1034000004DC00284BD0102851D149E0302849D0A5
:1034100040284CD139E060282DD0702807D0B0F575
:10342000805F03D0B0F5005F41D10DE041E0D5E908
:1034300002136A68206801F02CFC2068866846F058
:1034400077062068866034E0D5E902136A68206850
:1034500001F01FFC2068806840F48040216888608B
:1034600027E0EA686968206801F05DFD5021206866
:1034700001F01AFC1DE0EA686968206801F0AEFD01
:103480006021206801F010FC13E0EA686968206898
:1034900001F049FD4021206801F006FC09E000BF71
:1034A00000BF00BF2968206801F0FEFB01E0012792
:1034B00000BF00BF012084F83D0000BF002084F859
:1034C0003C0000BF384684E710B50446207F012841
:1034D00015D10021124800F01BFB00EE100AB8EED7
:1034E000400A104880ED000A0F4890ED000A0D4890
:1034F000D0ED000A80EE201A0C4880ED001A207FE3
:1035000002280AD10421064800F002FB00EE100A4E
:10351000B8EE400A044880ED000A01F017FA10BD29
:103520004CBE002094010020980100209C01002046
:103530002DE9F04104460D461646002700BF94F8D9
:103540003C00012802D10220BDE8F081012084F86E
:103550003C0000BF96B9EB68D5E90012206801F085
:10356000F5FC2068806920F00C00216888612068E3
:103570008069A96808432168886141E0042E13D15D
:10358000EB68D5E90012206801F03CFD20688069F5
:1035900020F440602168886120688069A96840EA59
:1035A0000120216888612BE0082E12D1EB68D5E953
:1035B0000012206801F043FD2068C06920F00C0073
:1035C0002168C8612068C069A96808432168C8618A
:1035D00016E00C2E13D1EB68D5E90012206801F03B
:1035E0004AFD2068C06920F440602168C8612068F5
:1035F000C069A96840EA01202168C86100E001278C
:1036000000BF002084F83C0000BF38469CE710B59E
:1036100004460CB9012010BD94F83D0028B90020E3
:1036200084F83C00204600F025F8022084F83D0094
:10363000211D206801F0B0FA012084F8460000BF87
:1036400084F83E0001213F200155402001554120D2
:10365000015500BF00BF012084F8420043200155FE
:10366000442001554520015500BF012084F83D004C
:103670000020D0E7704700002DE9F04304460D46D6
:10368000002615B994F83E000BE0042D02D13F202E
:10369000005D06E0082D02D14020005D01E04120E0
:1036A000005D804615B994F842000BE0042D02D16C
:1036B0004320005D06E0082D02D14420005D01E0BA
:1036C0004520005D8146B8F1010F02D1B9F1010F2B
:1036D00002D00120BDE8F0831DB9022084F83E002D
:1036E0000EE0042D03D102213F20015508E0082DF2
:1036F00003D102214020015502E002214120015561
:103700001DB9022084F842000EE0042D03D10221ED
:103710004320015508E0082D03D102214420015522
:1037200002E002214520015535B1042D0BD0082DB2
:1037300010D00C2D1CD114E02068C06840F00200AD
:103740002168C86016E02068C06840F00400216865
:10375000C8600FE02068C06840F008002168C860B9
:1037600008E02068C06840F010002168C86001E0EF
:10377000012600BF00BF86BB01222946206801F058
:1037800077FA1A49206888421BD02068B0F1804F30
:1037900017D017492068884213D0164920688842FC
:1037A0000FD01549206888420BD014492068884200
:1037B00007D013492068884203D012492068884204
:1037C0000CD12068806800F00707062F0CD0206815
:1037D000006840F001002168086005E0206800688A
:1037E00040F0010021680860304673E700000140A6
:1037F0000004004000080040000C004000040140AC
:10380000004001400018004010B5044620680069DF
:10381000C0F34000D8B12068C068C0F34000B0B128
:103820006FF002002168086101202077206880691C
:1038300000F0030018B12046FFF746FE05E02046E1
:1038400000F0ADF8204600F061F9002020772068F4
:103850000069C0F38000D8B12068C068C0F3800060
:10386000B0B16FF004002168086102202077206861
:10387000806900F4407018B12046FFF725FE05E08E
:10388000204600F08CF8204600F040F90020207718
:1038900020680069C0F3C000D8B12068C068C0F3D8
:1038A000C000B0B16FF008002168086104202077E3
:1038B0002068C06900F0030018B12046FFF704FE3D
:1038C00005E0204600F06BF8204600F01FF90020CC
:1038D000207720680069C0F30010D8B12068C06864
:1038E000C0F30010B0B16FF010002168086108202B
:1038F00020772068C06900F4407018B12046FFF7B7
:10390000E3FD05E0204600F04AF8204600F0FEF80E
:10391000002020772068006900F0010058B120687D
:10392000C06800F0010030B16FF00100216808614B
:10393000204600F0ECF820680069C0F3C01058B1D0
:103940002068C068C0F3C01030B16FF080002168FB
:1039500008612046FFF7A2FB20680069C0F38010D1
:1039600058B12068C068C0F3801030B16FF04000DB
:1039700021680861204600F01AF920680069C0F348
:10398000401058B12068C068C0F3401030B16FF0EB
:103990002000216808612046FFF781FB10BD7047B9
:1039A0002DE9F04104460D461646002700BF94F865
:1039B0003C00012802D10220BDE8F081012084F8FA
:1039C0003C0000BF36B1042E1BD0082E31D00C2E87
:1039D0005ED145E02946206801F070F920688069D1
:1039E00040F00800216888612068806920F00400A8
:1039F0002168886120688069296908432168886195
:103A000048E02946206801F091F92068806940F477
:103A10000060216888612068806920F480602168E6
:103A2000886120688069296940EA012021688861ED
:103A300030E02946206801F0B7F92068C06940F0FD
:103A400008002168C8612068C06920F0040021686E
:103A5000C8612068C069296908432168C86119E004
:103A60002946206801F0DCF92068C06940F4006054
:103A70002168C8612068C06920F480602168C8613D
:103A80002068C069296940EA01202168C86101E015
:103A9000012700BF00BF00BF002084F83C0000BF2A
:103AA000384689E710B504460CB9012010BD94F8DA
:103AB0003D0028B9002084F83C00204600F025F89D
:103AC000022084F83D00211D206801F065F80120E6
:103AD00084F8460000BF84F83E0001213F200155D4
:103AE000402001554120015500BF00BF012084F84E
:103AF000420043200155442001554520015500BF97
:103B0000012084F83D000020D0E7704770477047DF
:103B10000246002031B1042907D0082908D00C2919
:103B20000CD108E01368586B09E01368986B06E045
:103B30001368D86B03E01368186C00E000BF00BF87
:103B4000704770B504460D4600BF94F83C0001284C
:103B500001D1022070BD012084F83C0000BF02208A
:103B600084F83D002946204601F084F948B101203F
:103B700084F83D0000BF002084F83C0000BF012015
:103B8000E8E72068C06820F040002168C86020682D
:103B9000C06820F480402168C860012084F83D009E
:103BA00000BF002084F83C0000BF00BFD2E7704790
:103BB000704770472DE9F84F044620680568206873
:103BC000C668206847694FF00009CA4605F00F092A
:103BD000B9F1000F0AD105F0200038B106F020003D
:103BE00020B1204601F0B5FABDE8F88FB9F1000F19
:103BF0007CD007F0010018B906F49070002875D049
:103C000005F0010030B106F4807018B1206C40F06E
:103C10000100206405F0040030B107F0010018B184
:103C2000206C40F00200206405F0020030B107F083
:103C3000010018B1206C40F00400206405F0080079
:103C400048B106F0200010B907F0010018B1206C4F
:103C500040F008002064206C002846D005F02000C9
:103C600028B106F0200010B1204601F072FA206859
:103C70004069C0F3801A206C00F0080010B9BAF156
:103C8000000F2DD0204601F01EFA2068406900F098
:103C90004000402820D100BF00BF2168143151E806
:103CA000001F21F040002168143141E80002002A81
:103CB000F3D100BFA06B50B17548A16B0865A06B34
:103CC000FDF7B0FF88B1A06B016D88470DE020467D
:103CD000FFF76FFF09E009E02046FFF76AFF04E005
:103CE0002046FFF766FF002020647DE7206B012857
:103CF00076D105F01000002872D006F010000028E0
:103D0000FAD000BF00200090206800680090206872
:103D10004068009000BF00BF2068406900F040008C
:103D200040285ED1A06B006840681FFA80F8B8F1A7
:103D3000000F54D0A08D404551DDA4F82E80A06B1B
:103D4000C069B0F5807F43D000BF00BF21680C314F
:103D500051E8001F21F4807021680C3141E8000215
:103D6000002AF3D100BF00BF00BF2168143151E821
:103D7000001F21F001002168143141E80002002AEF
:103D8000F3D100BF00BF00BF2168143151E8001F0C
:103D900021F040002168143141E80002002AF3D1EB
:103DA00000BF202084F83E000020206300BF00BF39
:103DB00021680C3151E8001F21F0100021680C31FE
:103DC00041E80002002AF3D100BFA06BFDF7D4FE4A
:103DD000A08DE28D801A81B22046FFF7E9FE03E74D
:103DE00040E0A08DE18D401A1FFA80F8E08DC0B34D
:103DF000B8F1000F35D000BF00BF21680C3151E889
:103E0000001F21F4907021680C3141E80002002A63
:103E1000F3D100BF00BF00BF2168143151E8001F7B
:103E200021F001002168143141E80002002AF3D199
:103E300000BF202084F83E000020206300BF00BFA8
:103E400021680C3151E8001F21F0100021680C316D
:103E500041E80002002AF3D100BF41462046FFF7A7
:103E6000A7FEC1E605F0800030B106F0800018B171
:103E7000204601F026FBB7E605F0400030B106F021
:103E8000400018B1204601F054F9ADE600BFABE6A2
:103E9000B350000810B504460CB9012010BDA0694C
:103EA00000B100E000BF94F83D0028B9002084F87C
:103EB0003C00204600F028F8242084F83D002068CB
:103EC000C06820F400502168C860204601F0BEF9A7
:103ED0002068006920F490402168086120684069EA
:103EE00020F02A00216848612068C06840F4005032
:103EF0002168C86000202064202084F83D0084F8F8
:103F00003E000020CAE7000010B586B00446142128
:103F100001A8FCF78FF93B492068884231D100BFE6
:103F2000002000903848006840F0100036490860D2
:103F30000846006800F01000009000BF00BF00BFFE
:103F40000020009030481438006840F001002E49ED
:103F5000143908600846006800F00100009000BFB6
:103F600000BF4FF4C0600190022002900020039037
:103F7000032004900720059001A92448FEF7C2F809
:103F80003EE02349206888423AD100BF00200090DB
:103F90001D48001F006840F480201B49091F08606D
:103FA0000846006800F48020009000BF00BF00BFFA
:103FB0000020009014481438006840F002001249B4
:103FC000143908600846006800F00200009000BF45
:103FD00000BF4FF440600190022002900020039047
:103FE000032004900720059001A90A48FEF78AF8EB
:103FF000002211462720FEF73BFB2720FEF728FB77
:1040000006B010BD001001404438024000000240DC
:10401000004800400004024070B504460D461646B4
:1040200094F83E00202816D105B10EB9012070BDCC
:1040300000BF94F83C00012801D10220F7E70120DD
:1040400084F83C0000BF0020206332462946204609
:1040500001F012FAEBE70220E9E7000010B5044690
:104060001F48844235D11F48006890BB1E48007825
:10407000FF280FDB00201C4908704FF480711B489B
:10408000FCF7D8F84FF6FF730B221949144800F0DB
:1040900035F81EE017480078402802D10120164963
:1040A000086015480068012813D1124801780E48AD
:1040B00002780078401C0C4B18700C4881540D4855
:1040C0000078232805D100200B490860012005490C
:1040D0000860012207490248FFF79EFF10BD00005B
:1040E00068C00020C0010020B101002024BF0020D2
:1040F000B3010020B0010020C40100202DE9F84FD9
:1041000004460E46174699464FF0000A94F83D00C3
:1041100020285AD106B117B90120BDE8F88F00BF99
:1041200094F83C00012801D10220F6E7012084F830
:104130003C0000BF00202064212084F83D00FEF7F1
:10414000E1F88246A784E784A068B0F5805F04D1D7
:10415000206910B90025B04602E035464FF000084E
:1041600000BF002084F83C0000BF1BE05346002243
:1041700080212046CDF8009001F0D3F908B103204A
:10418000CBE745B9B8F80000C0F3080021684860E3
:1041900008F1020803E02878216848606D1CE08C73
:1041A000401EE084E08C0028E0D1534600224021EC
:1041B0002046CDF8009001F0B4F908B10320ACE737
:1041C000202084F83D000020A7E70220A5E77047E3
:1041D00000BFFEE770B500250024282410E00A2562
:1041E00008E04FF6FF722946204601F033FF05F143
:1041F0000A0085B2B5F5A07FF3DB04F1280084B294
:10420000B4F5C87FEBDB282510E00A2408E04FF660
:10421000FF722946204601F01DFF04F10A0084B216
:10422000B4F5C87FF3DB05F1280085B2B5F5A07FB2
:10423000EBDB70BD1FB50020009001900290039051
:104240001648174908604FF4803048600021144830
:1042500081600161017680F820104FF08051C162C9
:104260004FF0C06181620021C1600121C16180F80D
:1042700030104161FDF75AFA08B1FDF72BF8022022
:104280000090012001900020029069460448FDF74B
:10429000D3F808B1FDF71EF81FBD00000020014053
:1042A0008CBB00201CB500200090019010481149E3
:1042B00008600846FDF7E7FB08B1FDF70BF81C2086
:1042C000009002200190002269460A48FDF7AAFBEF
:1042D00008B1FCF7FFFF0020009001901022694612
:1042E0000448FDF79FFB08B1FCF7F4FF1CBD00007C
:1042F0000074004034BC002008B500BF00200090CE
:104300001A48006840F480001849086008460068B0
:1043100000F48000009000BF00BF00BF00200090AC
:104320000846006840F4001008600846006800F481
:104330000010009000BF00BF002211461020FEF7C1
:1043400097F91020FEF784F9002211463820FEF775
:104350008FF93820FEF77CF9002211463B20FEF74A
:1043600087F93B20FEF774F908BD000030380240A1
:1043700000B58FB01C2108A8FBF75CFF1C2101A829
:10438000FBF758FF4FF02040204908602048486064
:104390000620886000211D48C16001611021416133
:1043A00000218161C161016241624FF480518162EB
:1043B0000021C1624FF480410163002141638163A8
:1043C00041640F20089009903C200A9000200B9037
:1043D00010200C9011200D9000200E9009200190CB
:1043E0000F200290092003900020049010200590D7
:1043F000112006900020079001AA08A90348FEF7A3
:10440000FFFD08B1FCF766FF0FB000BDA8BC00209F
:10441000040100A000B587B0142102A8FBF70AFF31
:1044200000BF002001906E48006840F004006C4915
:1044300008600846006800F00400019000BF00BF5B
:1044400000BF002001900846006840F0200008608E
:104450000846006800F02000019000BF00BF00BFC8
:10446000002001900846006840F08000086008467F
:10447000006800F08000019000BF00BF00BF002076
:1044800001900846006840F0010008600846006896
:1044900000F00100019000BF00BF00BF00200190AC
:1044A0000846006840F0100008600846006800F008
:1044B0001000019000BF00BF00BF0020019008461F
:1044C000006840F0020008600846006800F0020042
:1044D000019000BF00BF00BF0020019008460068A7
:1044E00040F0080008600846006800F008000190ED
:1044F00000BF00BF00BF002001900846006840F0E8
:10450000400008600846006800F04000019000BFCD
:1045100000BF002249153348FDF7EEFE002240F2AD
:1045200047313148FDF7E8FE00224FF420412F4883
:10453000FDF7E2FE00224FF4FE712D48FDF7DCFE90
:1045400000224FF480712B48FDF7D6FE4FF4007027
:1045500002900120039000200490059002A92148B8
:10456000FDF7D0FD07200290012003900020049069
:104570000220059002A91C48FDF7C4FD4FF420401D
:1045800002900120039000200490059002A9174892
:10459000FDF7B8FD4FF4FE7002900120039000205B
:1045A0000490059002A91248FDF7ACFD4FF450703D
:1045B00002900120039000200490059002A90A486F
:1045C000FDF7A0FD4FF480700290012003900020C1
:1045D0000490059002A90748FDF794FD07B000BDBF
:1045E000303802400014024000080240000402403B
:1045F000001802400000024010B50B480B4908604B
:104600000B484860002109488160C1604FF4804137
:104610000161002141618161C1610162FDF778FEA4
:1046200008B1FCF757FE10BD00540040F8BC002054
:10463000A086010010B50E480E4908604FF4827044
:10464000486000210B488160C160016141614FF405
:10465000007181610021C1610162416281620A21B0
:10466000C162FEF7E5FB08B1FCF734FE10BD0000A7
:10467000003001404CBD002000B58DB000200990F5
:104680000A900B900C90079008901C216846FBF74D
:10469000D1FD4FF080401F4908602820486000216C
:1046A0001C4881600321C16000210161802181617A
:1046B000FEF750FD08B1FCF70DFE4FF48050099055
:1046C00009A91448FEF77AFE08B1FCF703FE114869
:1046D000FFF7E8F908B1FCF7FDFD50200790002036
:1046E000089007A90B48FEF7DBFC08B1FCF7F2FDC8
:1046F000602000900120019000200290049004228C
:1047000069460448FFF74CF908B1FCF7E3FD0DB02A
:1047100000BD000004BE002000B58FB000200B904B
:104720000C900D900E90142106A8FBF783FD00203D
:104730000490059000900190029003902B482C4922
:1047400008605320486000212948816044F61F61B9
:10475000C1600021016180218161FEF7FBFC08B18D
:10476000FCF7B8FD4FF480500B900BA92048FEF7E2
:1047700025FE08B1FCF7AEFD1D48FEF748FF08B165
:10478000FCF7A8FD04200690502007900020089018
:104790000A9006A91648FFF7D4F908B1FCF79AFD6C
:1047A00000200490059004A91148FEF779FC08B197
:1047B000FCF790FD00200090012001900020029065
:1047C0000390002269460A48FEF7B2FE08B1FCF7E2
:1047D00081FD02200090042269460548FEF7A8FEEC
:1047E00008B1FCF777FD0FB000BD000000040040E9
:1047F0004CBE002000B587B00020039004900590C7
:1048000006900190029015481549086052204860B2
:1048100000211348816040F2E731C160002101614D
:1048200080218161FEF796FC08B1FCF753FD4FF43F
:104830008050039003A90A48FEF7C0FD08B1FCF7B9
:1048400049FD00200190029001A90548FEF728FCCF
:1048500008B1FCF73FFD07B000BD000000080040B4
:1048600094BE002000B587B000200390049005900E
:104870000690019002901548154908600020486094
:104880000021134881605321C16000210161802112
:104890008161FEF75FFC08B1FCF71CFD4FF480500E
:1048A000039003A90A48FEF789FD08B1FCF712FD41
:1048B000202001900020029001A90548FEF7F0FB9E
:1048C00008B1FCF707FD07B000BD0000000C004078
:1048D000DCBE002010B50B480B4908604FF4E130F6
:1048E0004860002108488160C16001610C2141617C
:1048F00000218161C161FFF7CDFA08B1FCF7EAFC44
:1049000010BD00000010014024C0002010B50B486D
:104910000B4908604FF4E13048600021084881608D
:10492000C16001610C21416100218161C161FFF71A
:10493000B1FA08B1FCF7CEFC10BD00000048004001
:1049400068C0002000BFFEE700BFFEE710B52DEDF8
:10495000028B84B037480088401C364908800846DE
:1049600000880A2862D14FF6E07033A11022134666
:10497000CDE9002102905022A02140F2951001F0D3
:10498000CFFC304890ED000ADFED2F0A80EE801A50
:1049900011EE104A2046FBF70FFE41EC180B53ECCA
:1049A000182B2AA12B4800F04DFE4FF6FF70294925
:1049B00010221346CDE9002102908222B42140F258
:1049C000951001F0ADFC4FF6E07023A110221346C4
:1049D000CDE9002102905022782140F2951001F09B
:1049E0009FFC1F4890ED000ADFED1E0A20EE200A12
:1049F00010EE101A0846FBF7DFFD41EC180B53ECE4
:104A0000182B19A1134800F01DFE4FF6FF70114935
:104A100010221346CDE90021029050228C2140F251
:104A2000951001F07DFC00200249088004B0BDEC27
:104A3000028B10BD8201002050574D5F4628487AF6
:104A4000293A0000940100200024744925302E33B7
:104A500066487A006CBA0020447574793A00000008
:104A60009C0100200000C842252E3266202525002A
:104A70007047704708B54FF6E0700949086040F28A
:104A8000CF1001F077FA0648008880B24FF4A07387
:104A90004FF4C87200210090084601F0EBFA08BDFF
:104AA0000000002010B5FDF75FFD10BD00B593B00C
:104AB000302107A8FBF7BEFB142102A8FBF7BAFBC5
:104AC00000BF002001902548006840F08050234935
:104AD00008600846006800F08050019000BF00BFE9
:104AE00000BF002001901E48006840F480401C492F
:104AF00008600846006800F48040019000BF00BFD5
:104B00000220079001200A9010200B9002200D90A7
:104B100000210E9108210F91A821109102211191DD
:104B20000421129107A8FDF735FF08B1FCF7D2FB6D
:104B30000F20029002200390002004904FF4A05018
:104B400005904FF480500690052102A8FDF7E2FD84
:104B500008B1FCF7BFFB13B000BD000040380240B5
:104B6000007000400348006840F47000014908608C
:104B70007047000088ED00E010B50248FEF744FEE3
:104B800010BD00004CBE002010B50248FEF73CFEF0
:104B900010BD000094BE002010B50268294B984259
:104BA0000ED0B0F1804F0BD0274B984208D0274B46
:104BB000984205D0264B984202D0264B984203D10A
:104BC00022F070024B681A431E4B984220D0B0F17D
:104BD000804F1DD01C4B98421AD01C4B984217D0C6
:104BE0001B4B984214D01B4B984211D01A4B984241
:104BF0000ED01A4B98420BD0194B984208D0194B43
:104C0000984205D0184B984202D0184B984203D1D5
:104C100022F44072CB681A4322F080034C6943EAC5
:104C2000040202608B68C3620B688362054B984282
:104C300002D0084B984201D10B6903630123436101
:104C400010BD0000000001400004004000080040CA
:104C5000000C0040000401400040014000440140BD
:104C60000048014000180040001C004000200040A7
:104C700030B501F01F05012404FA05F3046A9C43D2
:104C80000462046A01F01F0502FA05F52C43046270
:104C900030BD30B50C46816821F47F4142EA0325DE
:104CA00025432943816030BD0A46816821F07001A7
:104CB00042F00703194381607047000030B5056A70
:104CC00025F001050562026A4368846924F07004D6
:104CD00024F003040D682C4322F002028D682A435D
:104CE000104DA84200D103E00F4DA84206D100BFED
:104CF00022F00802CD682A4322F00402094DA8429E
:104D000002D0094DA84207D123F4807323F4007325
:104D10004D692B438D692B43436084614D68456326
:104D2000026230BD000001400004014030B5056A58
:104D300025F010050562026A4368846924F4E044A2
:104D400024F440740D6844EA052422F020028D68A2
:104D500042EA0512124DA84200D103E0114DA842CB
:104D600007D100BF22F08002CD6842EA051222F08E
:104D700040020B4DA84202D00A4DA84209D123F4AB
:104D8000806323F400634D6943EA85038D6943EA38
:104D90008503436084614D688563026230BD000015
:104DA000000001400004014030B5056A25F480751B
:104DB0000562026A4368C46924F0700424F00304A5
:104DC0000D682C4322F400728D6842EA0522124DD0
:104DD000A84200D103E0114DA84207D100BF22F440
:104DE0000062CD6842EA052222F480620A4DA842A0
:104DF00002D00A4DA84209D123F4805323F4005372
:104E00004D6943EA05138D6943EA05134360C461A4
:104E10004D68C563026230BD0000014000040140DE
:104E200030B5056A25F480550562036A4468C26995
:104E300022F4E04222F440720D6842EA052223F493
:104E400000538D6843EA0533084DA84202D0084D4F
:104E5000A84204D124F480444D6944EA8514446096
:104E6000C2614D680564036230BD0000000001406E
:104E7000000401402DE9F04705460C464FF00009BB
:104E80002868866826F070066068064326F00706E4
:104E90002068064328688660606800F00F010029DA
:104EA0003BD10011082838D2DFE800F03334353622
:104EB0000B272D04D4E90313A2682868FFF7E9FE45
:104EC0002EE02068052802D10120BDE8F08728687F
:104ED000D0F820802868006A20F001002968086264
:104EE0002868876927F0F007206947EA00172868D3
:104EF00087612868C0F8208012E02269A1682868CC
:104F000000F011F80CE02269A168286800F066F84A
:104F100006E000BF00BF00BF02E04FF0010900BF84
:104F200000BF4846D1E730B50B461446026A056A11
:104F300025F001050562816921F0F00141EA0411C3
:104F400022F00A021A438161026230BD70B50C463C
:104F50001546066A26F0010606628169026A184E45
:104F6000B04214D0B0F1804F11D0164EB0420ED0E6
:104F7000154EB0420BD0154EB04208D0144EB04280
:104F800005D0144EB04202D0134EB04201D10126DA
:104F900000E000261EB121F00301294301E041F0A9
:104FA000010121F0F001F02606EA0316314322F058
:104FB0000A0204F00A0632438161026270BD0000F9
:104FC000000001400004004000080040000C0040C8
:104FD00000040140004001400018004030B50B467D
:104FE0001446056A25F0100505628169026A21F4FC
:104FF000704141EA043122F0A00242EA03128161C9
:10500000026230BD70B50C461546066A26F01006E1
:1050100006628169026A21F4407141EA052121F4A6
:1050200070414FF4704606EA0336314322F0A00285
:10503000A02606EA041632438161026270BD70B593
:105040000C461546066A26F480760662C169026A35
:1050500021F00301294321F0F001F02606EA0316AE
:10506000314322F420624FF4206606EA04263243DC
:10507000C161026270BD70B50C461546066A26F421
:1050800080560662C169026A21F4407141EA052135
:1050900021F470414FF4704606EA0336314322F49E
:1050A00020424FF4204606EA04363243C1610262D0
:1050B00070BD70B50546AC6B0020E085E0842046ED
:1050C000FEF777FD70BD00BF00BF02680C3252E8EA
:1050D000002F22F4907102680C3242E80013002B7A
:1050E000F3D100BF00BF00BF0268143252E8002FA6
:1050F00022F001010268143242E80013002BF3D1C0
:1051000000BF016B01290ED100BF00BF02680C3245
:1051100052E8002F22F0100102680C3242E800131E
:10512000002BF3D100BF202180F83E100021016345
:10513000704710B504462068C06820F04000216820
:10514000C860202084F83D002046FFF740F800208A
:1051500010BDF8B5044694F83E00222873D1A0682B
:10516000B0F5805F0CD1206950B90025A66A20688F
:105170004068C0F308003080A06A801CA06215E07F
:10518000A56A0026A068B0F5805F03D0A06828B9A2
:10519000206918B920684068287004E020684068D9
:1051A00000F07F002870A06A401CA062E08D401EC5
:1051B00080B2E085002844D12068C06820F020003B
:1051C0002168C8602068C06820F480702168C860C9
:1051D0002068406920F0010021684861202084F89F
:1051E0003E00206B012826D10020206300BF00BFB5
:1051F00021680C3151E8001F21F0100021680C31AA
:1052000041E80002002AF3D100BF2068006800F0E6
:10521000100010280AD100BF00200090206800680C
:10522000009020684068009000BF00BFA18D20461C
:10523000FEF7BEFC02E02046FEF710FF0020F8BD9E
:1052400001E00020FBE70220F9E700002DE9F84F1C
:1052500004462068006920F44050E1680843216852
:1052600008612169A068084361690843E16908434E
:1052700000902068C06849F20C6188430099084397
:105280002168C8602068406920F44070A169084323
:105290002168486176492068884203D075492068B2
:1052A000884203D1FDF70EFB814602E0FDF7FAFAD2
:1052B0008146E069B0F5004F6CD102206168A0FB27
:1052C000015003461920A9FB007001462A463846C2
:1052D000FAF778FF6421B0FBF1F04FEA001A0220E0
:1052E0006168A0FB01510B461920A9FB00712A46F9
:1052F0003846FAF767FF834602206168A0FB015039
:1053000003461920A9FB00712A463846FAF75AFFCE
:105310006421B0FBF1F000EBC00101EB0010ABEB3E
:105320008000322101EBC0006421B0FBF1F000F0FD
:10533000F8000AEB400A02206168A0FB0150034616
:105340001920A9FB007001462A463846FAF73AFFB1
:10535000834602206168A0FB015003461920A9FB87
:1053600000712A463846FAF72DFF6421B0FBF1F0B0
:1053700000EBC00101EB0010ABEB8000322101EB30
:10538000C0006421B0FBF1F000F007005044216838
:1053900088606AE004206168A0FB01500346192080
:1053A000A9FB007001462A463846FAF70BFF8246F1
:1053B00004206168A0FB015003461920A9FB00707E
:1053C00001462A463846FAF7FDFE6421B0FBF1F0AB
:1053D00000EBC00101EB0010AAEB8000322101EBD1
:1053E00000106421B0FBF1F000F0F00A04206168C5
:1053F000A0FB017003461920A9FB00513A4628463C
:10540000FAF7E0FE6421B0FBF1F00AEB001A042089
:105410006168A0FB01510B461920A9FB00712A46C7
:105420003846FAF7CFFE834604206168A0FB01509E
:1054300003461920A9FB007001462A463846FAF7B0
:10544000C1FE6421B0FBF1F000EBC00101EB0010E4
:10545000ABEB8000322101EB00106421B0FBF1F0D6
:1054600000F00F00504421688860BDE8F88F00000C
:10547000001001400014014010B5034699629A855E
:10548000DA8500201864222083F83E0000BF002047
:1054900083F83C0000BF186928B11868C06840F460
:1054A00080701C68E0601868406940F001001C686A
:1054B00060611868C06840F020001C68E06000204F
:1054C00010BD014691F83D00212828D18868B0F52B
:1054D000805F0BD1086948B90A6A1088C0F30800D8
:1054E0000B685860086A801C086205E00B6A581C4B
:1054F000086218780B685860C88C401E80B2C88457
:1055000058B90868C06820F080000B68D860086847
:10551000C06840F040000B68D8600020704702204F
:10552000FCE72DE9F04104460D4617469846069ED5
:1055300034E0701C88B32EB1FCF7E4FEA0EB080049
:10554000B0422BD900BF00BF21680C3151E8001FC9
:1055500021F4D07021680C3141E80002002AF3D117
:1055600000BF00BF00BF2168143151E8001F21F0C7
:1055700001002168143141E80002002AF3D100BF84
:10558000202084F83D0084F83E0000BF002084F80D
:105590003C0000BF0320BDE8F081FFE72068006801
:1055A0002840A84201D1012000E00020B842C0D02C
:1055B0000020F0E710B50248FEF7FCFA10BD00002D
:1055C00068C0002000BFFEE770B5064680250022B7
:1055D00010211248FCF790FE00241BE006EA0500AB
:1055E00030B900224FF480710D48FCF785FE04E0CD
:1055F000012211020A48FCF77FFE01221021074810
:10560000FCF77AFE6D10002210210448FCF774FEAE
:10561000601CC4B2082CE1DB70BD00000018024021
:10562000000002400FB4054B10B503A9044A0298CC
:1056300000F00AF910BC5DF814FB0000595F000887
:10564000085A00200FB4084B10B504A902AA039809
:1056500000F0FAF8044602A9002000F078FC204689
:1056600010BC5DF814FB00004F5F000802480068A2
:10567000C0F30220704700000CED00E010B50028D8
:1056800004DB0A07130E054A135406E00A07140E3A
:10569000034A00F00F031B1FD45410BD00E400E0C8
:1056A00018ED00E002E008C8121F08C1002AFAD174
:1056B00070477047002001E001C1121F002AFBD192
:1056C000704700002DE9FF5F82B00021DDE9043062
:1056D000020DDDF840B0034318D044F61050A2F29A
:1056E000FF3242431514119801281FD0A5EB0B007F
:1056F000401C5FEA000A4FF000064E4FDFF8389179
:10570000B046504615D5CAF1000413E011980124A3
:105710004AA3012801D16FEA0B010298119AC0E94E
:105720000031C0E9024206B0BDE8F09FCBF10000B5
:10573000DFE704460021404A491842EB0450CDE916
:10574000001012E0E00707D032463B46404649468B
:10575000FAF72BFE8046894632463B4610461946EC
:10576000FAF723FE06460F466410002CEAD1DDE965
:105770000401DDE90023BAF1000F06DAFAF715FE9D
:1057800042464B46FAF711FE05E0FAF780FE424624
:105790004B46FAF77CFE04460E460022284BFAF7E9
:1057A0001FFF03D84FF0FF30014607E00022254BD2
:1057B00020463146FAF752FDFBF721F8102409E0A4
:1057C000002C0ADB0A220023FAF7FCFC039B303290
:1057D0001A55641E50EA0102F2D1641C039AC4F106
:1057E00011031444119A012A03D0012208430DD158
:1057F0000AE0084304D000204FF0110B119072E72B
:10580000A3EB0B056D1E0DE05B4504DD4FF00002C0
:1058100005F1010504E003DA4FF00002A5F10105EE
:10582000002AECD002981199C0E90231C0E9004584
:1058300079E70000000014400000F03F3000000055
:105840000000F0430000E03F2DE9FF4F95B09A467D
:10585000884606460025EEE1252877D10024274614
:10586000F94A0121039400E0044316F8013F203B6C
:1058700001FA03F01042F7D130782A2811D06FF0E6
:105880002F033078A0F13002092A16D8039A44F089
:10589000020402EB820203EB42021044761C0390E6
:1058A000EFE758F8042B0392002A03DA504244F43D
:1058B0000054039044F00204761C30782E2816D150
:1058C00016F8010F44F004042A280DD06FF02F02BF
:1058D0003078A0F13003092B09D807EB870302EBDE
:1058E0004303C718761CF3E758F8047B761C30781E
:1058F0006C280FD006DC4C2817D068280DD06A28F9
:1059000014D104E0742810D07A280FD10DE044F4AB
:1059100000140AE044F4801401E044F44014727866
:10592000824202D104F58014761C761C30786628F9
:105930000BD013DC582877D009DC002875D0452817
:10594000F6D04628F4D047281AD193E118E063280E
:1059500035D0642879D0652812D18BE1702873D0B6
:1059600008DC6728F1D069286FD06E280DD06F2829
:1059700006D1ACE073282CD0752874D0782853D089
:105980005246179990476D1C54E1C4F30250022807
:1059900009D003280DD0D8F8001004280DD00D60D0
:1059A00008F1040846E1D8F80010EA17C1E90052EE
:1059B000F6E7D8F800100D80F2E70D70F0E718F860
:1059C000041B8DF8001000208DF80100EB4601202B
:1059D00003E058F804BB4FF0FF3061074FF00001BF
:1059E00002D40DE009F101018946B9420FDA81457F
:1059F000F8DB1BF809100029F4D108E009F10101D6
:105A000089468142FADB1BF809100029F6D1039878
:105A10005346A0EB090721463846179A00F080FA52
:105A2000284400EB090507E044E008E10DE01BF81D
:105A3000010B524617999047B9F10109F7D2534625
:105A400021463846179AF2E039E00A21C4F302529F
:105A50004FF0000B0091022A06D058F8040BC11732
:105A6000032A09D00AE023E008F1070020F007022A
:105A7000F2E80201904605E000B2C117042A01D104
:105A800040B2C117002906DA0A460021404261EB04
:105A900002012D2202E0220504D52B228DF80420DC
:105AA000012203E0E20701D02022F7E7914657E008
:105AB0000A2100E010214FF0000B00910BE01021B3
:105AC0004FF0000B44F004040827009103E0082085
:105AD0004FF0000B0090C4F30252022A05D058F890
